{
	"contracts/rps_v2.sol": {
		"RPS_v2": {
			"abi": [
				{
					"inputs": [],
					"name": "balance",
					"outputs": [
						{
							"internalType": "uint256",
							"name": "",
							"type": "uint256"
						}
					],
					"stateMutability": "view",
					"type": "function"
				},
				{
					"inputs": [],
					"name": "decide",
					"outputs": [
						{
							"internalType": "string",
							"name": "",
							"type": "string"
						}
					],
					"stateMutability": "view",
					"type": "function"
				},
				{
					"inputs": [
						{
							"internalType": "address payable",
							"name": "player",
							"type": "address"
						},
						{
							"internalType": "enum RPS_v2.Move",
							"name": "move",
							"type": "uint8"
						}
					],
					"name": "play",
					"outputs": [
						{
							"internalType": "string",
							"name": "",
							"type": "string"
						}
					],
					"stateMutability": "payable",
					"type": "function"
				},
				{
					"inputs": [],
					"name": "reset",
					"outputs": [],
					"stateMutability": "nonpayable",
					"type": "function"
				}
			],
			"devdoc": {
				"kind": "dev",
				"methods": {},
				"version": 1
			},
			"evm": {
				"assembly": "    /* \"contracts/rps_v2.sol\":128:2920  contract RPS_v2 {... */\n  mstore(0x40, 0x80)\n    /* \"contracts/rps_v2.sol\":543:548  false */\n  0x00\n    /* \"contracts/rps_v2.sol\":525:548  bool winnerPaid = false */\n  0x04\n  exp(0x0100, 0x01)\n  dup2\n  sload\n  dup2\n  0xff\n  mul\n  not\n  and\n  swap1\n  dup4\n  iszero\n  iszero\n  mul\n  or\n  swap1\n  sstore\n  pop\n    /* \"contracts/rps_v2.sol\":128:2920  contract RPS_v2 {... */\n  callvalue\n  dup1\n  iszero\n  tag_1\n  jumpi\n  0x00\n  dup1\n  revert\ntag_1:\n  pop\n  dataSize(sub_0)\n  dup1\n  dataOffset(sub_0)\n  0x00\n  codecopy\n  0x00\n  return\nstop\n\nsub_0: assembly {\n        /* \"contracts/rps_v2.sol\":128:2920  contract RPS_v2 {... */\n      mstore(0x40, 0x80)\n      jumpi(tag_1, lt(calldatasize, 0x04))\n      shr(0xe0, calldataload(0x00))\n      dup1\n      0x305fcef3\n      eq\n      tag_2\n      jumpi\n      dup1\n      0xb69ef8a8\n      eq\n      tag_3\n      jumpi\n      dup1\n      0xbca7437b\n      eq\n      tag_4\n      jumpi\n      dup1\n      0xd826f88f\n      eq\n      tag_5\n      jumpi\n    tag_1:\n      0x00\n      dup1\n      revert\n        /* \"contracts/rps_v2.sol\":1410:2264  function decide() public view returns(string memory) {... */\n    tag_2:\n      callvalue\n      dup1\n      iszero\n      tag_6\n      jumpi\n      0x00\n      dup1\n      revert\n    tag_6:\n      pop\n      tag_7\n      tag_8\n      jump\t// in\n    tag_7:\n      mload(0x40)\n      tag_9\n      swap2\n      swap1\n      tag_10\n      jump\t// in\n    tag_9:\n      mload(0x40)\n      dup1\n      swap2\n      sub\n      swap1\n      return\n        /* \"contracts/rps_v2.sol\":2783:2918  function balance() external view returns(uint) {... */\n    tag_3:\n      callvalue\n      dup1\n      iszero\n      tag_11\n      jumpi\n      0x00\n      dup1\n      revert\n    tag_11:\n      pop\n      tag_12\n      tag_13\n      jump\t// in\n    tag_12:\n      mload(0x40)\n      tag_14\n      swap2\n      swap1\n      tag_15\n      jump\t// in\n    tag_14:\n      mload(0x40)\n      dup1\n      swap2\n      sub\n      swap1\n      return\n        /* \"contracts/rps_v2.sol\":556:1404  function play(address payable player, Move move) public payable returns(string memory) {... */\n    tag_4:\n      tag_16\n      0x04\n      dup1\n      calldatasize\n      sub\n      dup2\n      add\n      swap1\n      tag_17\n      swap2\n      swap1\n      tag_18\n      jump\t// in\n    tag_17:\n      tag_19\n      jump\t// in\n    tag_16:\n      mload(0x40)\n      tag_20\n      swap2\n      swap1\n      tag_10\n      jump\t// in\n    tag_20:\n      mload(0x40)\n      dup1\n      swap2\n      sub\n      swap1\n      return\n        /* \"contracts/rps_v2.sol\":2614:2777  function reset() public {... */\n    tag_5:\n      callvalue\n      dup1\n      iszero\n      tag_21\n      jumpi\n      0x00\n      dup1\n      revert\n    tag_21:\n      pop\n      tag_22\n      tag_23\n      jump\t// in\n    tag_22:\n      stop\n        /* \"contracts/rps_v2.sol\":1410:2264  function decide() public view returns(string memory) {... */\n    tag_8:\n        /* \"contracts/rps_v2.sol\":1448:1461  string memory */\n      0x60\n        /* \"contracts/rps_v2.sol\":1496:1497  0 */\n      0x00\n        /* \"contracts/rps_v2.sol\":1477:1498  player1 != address(0) */\n      0xffffffffffffffffffffffffffffffffffffffff\n      and\n        /* \"contracts/rps_v2.sol\":1477:1484  player1 */\n      0x00\n      dup1\n      sload\n      swap1\n      0x0100\n      exp\n      swap1\n      div\n      0xffffffffffffffffffffffffffffffffffffffff\n      and\n        /* \"contracts/rps_v2.sol\":1477:1498  player1 != address(0) */\n      0xffffffffffffffffffffffffffffffffffffffff\n      and\n      eq\n      iszero\n        /* \"contracts/rps_v2.sol\":1477:1523  player1 != address(0) && player2 != address(0) */\n      dup1\n      iszero\n      tag_25\n      jumpi\n      pop\n        /* \"contracts/rps_v2.sol\":1521:1522  0 */\n      0x00\n        /* \"contracts/rps_v2.sol\":1502:1523  player2 != address(0) */\n      0xffffffffffffffffffffffffffffffffffffffff\n      and\n        /* \"contracts/rps_v2.sol\":1502:1509  player2 */\n      0x01\n      0x00\n      swap1\n      sload\n      swap1\n      0x0100\n      exp\n      swap1\n      div\n      0xffffffffffffffffffffffffffffffffffffffff\n      and\n        /* \"contracts/rps_v2.sol\":1502:1523  player2 != address(0) */\n      0xffffffffffffffffffffffffffffffffffffffff\n      and\n      eq\n      iszero\n        /* \"contracts/rps_v2.sol\":1477:1523  player1 != address(0) && player2 != address(0) */\n    tag_25:\n        /* \"contracts/rps_v2.sol\":1473:2258  if (player1 != address(0) && player2 != address(0)) {... */\n      iszero\n      tag_26\n      jumpi\n        /* \"contracts/rps_v2.sol\":1588:1599  player2move */\n      0x01\n      0x15\n      swap1\n      sload\n      swap1\n      0x0100\n      exp\n      swap1\n      div\n      0xff\n      and\n        /* \"contracts/rps_v2.sol\":1573:1599  player1move == player2move */\n      0x02\n      dup2\n      gt\n      iszero\n      tag_27\n      jumpi\n      tag_28\n      tag_29\n      jump\t// in\n    tag_28:\n    tag_27:\n        /* \"contracts/rps_v2.sol\":1573:1584  player1move */\n      0x01\n      0x14\n      swap1\n      sload\n      swap1\n      0x0100\n      exp\n      swap1\n      div\n      0xff\n      and\n        /* \"contracts/rps_v2.sol\":1573:1599  player1move == player2move */\n      0x02\n      dup2\n      gt\n      iszero\n      tag_30\n      jumpi\n      tag_31\n      tag_29\n      jump\t// in\n    tag_31:\n    tag_30:\n      eq\n        /* \"contracts/rps_v2.sol\":1569:2179  if (player1move == player2move) {... */\n      iszero\n      tag_32\n      jumpi\n        /* \"contracts/rps_v2.sol\":1624:1634  winnerPaid */\n      0x04\n      0x01\n      swap1\n      sload\n      swap1\n      0x0100\n      exp\n      swap1\n      pop\n      pop\n        /* \"contracts/rps_v2.sol\":1660:1674  return \"Draw!\" */\n      mload(0x40)\n      dup1\n      0x40\n      add\n      0x40\n      mstore\n      dup1\n      0x05\n      dup2\n      mstore\n      0x20\n      add\n      0x4472617721000000000000000000000000000000000000000000000000000000\n      dup2\n      mstore\n      pop\n      swap1\n      pop\n      jump(tag_24)\n        /* \"contracts/rps_v2.sol\":1569:2179  if (player1move == player2move) {... */\n    tag_32:\n        /* \"contracts/rps_v2.sol\":1752:1761  Move.ROCK */\n      0x00\n        /* \"contracts/rps_v2.sol\":1737:1761  player1move == Move.ROCK */\n      0x02\n      dup2\n      gt\n      iszero\n      tag_36\n      jumpi\n      tag_37\n      tag_29\n      jump\t// in\n    tag_37:\n    tag_36:\n        /* \"contracts/rps_v2.sol\":1737:1748  player1move */\n      0x01\n      0x14\n      swap1\n      sload\n      swap1\n      0x0100\n      exp\n      swap1\n      div\n      0xff\n      and\n        /* \"contracts/rps_v2.sol\":1737:1761  player1move == Move.ROCK */\n      0x02\n      dup2\n      gt\n      iszero\n      tag_38\n      jumpi\n      tag_39\n      tag_29\n      jump\t// in\n    tag_39:\n    tag_38:\n      eq\n        /* \"contracts/rps_v2.sol\":1737:1792  player1move == Move.ROCK && player2move == Move.SCISSOR */\n      dup1\n      iszero\n      tag_40\n      jumpi\n      pop\n        /* \"contracts/rps_v2.sol\":1780:1792  Move.SCISSOR */\n      0x02\n        /* \"contracts/rps_v2.sol\":1765:1792  player2move == Move.SCISSOR */\n      dup1\n      dup2\n      gt\n      iszero\n      tag_41\n      jumpi\n      tag_42\n      tag_29\n      jump\t// in\n    tag_42:\n    tag_41:\n        /* \"contracts/rps_v2.sol\":1765:1776  player2move */\n      0x01\n      0x15\n      swap1\n      sload\n      swap1\n      0x0100\n      exp\n      swap1\n      div\n      0xff\n      and\n        /* \"contracts/rps_v2.sol\":1765:1792  player2move == Move.SCISSOR */\n      0x02\n      dup2\n      gt\n      iszero\n      tag_43\n      jumpi\n      tag_44\n      tag_29\n      jump\t// in\n    tag_44:\n    tag_43:\n      eq\n        /* \"contracts/rps_v2.sol\":1737:1792  player1move == Move.ROCK && player2move == Move.SCISSOR */\n    tag_40:\n        /* \"contracts/rps_v2.sol\":1737:1872  player1move == Move.ROCK && player2move == Move.SCISSOR ||... */\n      dup1\n      tag_45\n      jumpi\n      pop\n        /* \"contracts/rps_v2.sol\":1834:1844  Move.PAPER */\n      0x01\n        /* \"contracts/rps_v2.sol\":1819:1844  player1move == Move.PAPER */\n      0x02\n      dup2\n      gt\n      iszero\n      tag_46\n      jumpi\n      tag_47\n      tag_29\n      jump\t// in\n    tag_47:\n    tag_46:\n        /* \"contracts/rps_v2.sol\":1819:1830  player1move */\n      0x01\n      0x14\n      swap1\n      sload\n      swap1\n      0x0100\n      exp\n      swap1\n      div\n      0xff\n      and\n        /* \"contracts/rps_v2.sol\":1819:1844  player1move == Move.PAPER */\n      0x02\n      dup2\n      gt\n      iszero\n      tag_48\n      jumpi\n      tag_49\n      tag_29\n      jump\t// in\n    tag_49:\n    tag_48:\n      eq\n        /* \"contracts/rps_v2.sol\":1819:1872  player1move == Move.PAPER && player2move == Move.ROCK */\n      dup1\n      iszero\n      tag_50\n      jumpi\n      pop\n        /* \"contracts/rps_v2.sol\":1863:1872  Move.ROCK */\n      0x00\n        /* \"contracts/rps_v2.sol\":1848:1872  player2move == Move.ROCK */\n      0x02\n      dup2\n      gt\n      iszero\n      tag_51\n      jumpi\n      tag_52\n      tag_29\n      jump\t// in\n    tag_52:\n    tag_51:\n        /* \"contracts/rps_v2.sol\":1848:1859  player2move */\n      0x01\n      0x15\n      swap1\n      sload\n      swap1\n      0x0100\n      exp\n      swap1\n      div\n      0xff\n      and\n        /* \"contracts/rps_v2.sol\":1848:1872  player2move == Move.ROCK */\n      0x02\n      dup2\n      gt\n      iszero\n      tag_53\n      jumpi\n      tag_54\n      tag_29\n      jump\t// in\n    tag_54:\n    tag_53:\n      eq\n        /* \"contracts/rps_v2.sol\":1819:1872  player1move == Move.PAPER && player2move == Move.ROCK */\n    tag_50:\n        /* \"contracts/rps_v2.sol\":1737:1872  player1move == Move.ROCK && player2move == Move.SCISSOR ||... */\n    tag_45:\n        /* \"contracts/rps_v2.sol\":1737:1955  player1move == Move.ROCK && player2move == Move.SCISSOR ||... */\n      dup1\n      tag_55\n      jumpi\n      pop\n        /* \"contracts/rps_v2.sol\":1914:1926  Move.SCISSOR */\n      0x02\n        /* \"contracts/rps_v2.sol\":1899:1926  player1move == Move.SCISSOR */\n      dup1\n      dup2\n      gt\n      iszero\n      tag_56\n      jumpi\n      tag_57\n      tag_29\n      jump\t// in\n    tag_57:\n    tag_56:\n        /* \"contracts/rps_v2.sol\":1899:1910  player1move */\n      0x01\n      0x14\n      swap1\n      sload\n      swap1\n      0x0100\n      exp\n      swap1\n      div\n      0xff\n      and\n        /* \"contracts/rps_v2.sol\":1899:1926  player1move == Move.SCISSOR */\n      0x02\n      dup2\n      gt\n      iszero\n      tag_58\n      jumpi\n      tag_59\n      tag_29\n      jump\t// in\n    tag_59:\n    tag_58:\n      eq\n        /* \"contracts/rps_v2.sol\":1899:1955  player1move == Move.SCISSOR && player2move == Move.PAPER */\n      dup1\n      iszero\n      tag_60\n      jumpi\n      pop\n        /* \"contracts/rps_v2.sol\":1945:1955  Move.PAPER */\n      0x01\n        /* \"contracts/rps_v2.sol\":1930:1955  player2move == Move.PAPER */\n      0x02\n      dup2\n      gt\n      iszero\n      tag_61\n      jumpi\n      tag_62\n      tag_29\n      jump\t// in\n    tag_62:\n    tag_61:\n        /* \"contracts/rps_v2.sol\":1930:1941  player2move */\n      0x01\n      0x15\n      swap1\n      sload\n      swap1\n      0x0100\n      exp\n      swap1\n      div\n      0xff\n      and\n        /* \"contracts/rps_v2.sol\":1930:1955  player2move == Move.PAPER */\n      0x02\n      dup2\n      gt\n      iszero\n      tag_63\n      jumpi\n      tag_64\n      tag_29\n      jump\t// in\n    tag_64:\n    tag_63:\n      eq\n        /* \"contracts/rps_v2.sol\":1899:1955  player1move == Move.SCISSOR && player2move == Move.PAPER */\n    tag_60:\n        /* \"contracts/rps_v2.sol\":1737:1955  player1move == Move.ROCK && player2move == Move.SCISSOR ||... */\n    tag_55:\n        /* \"contracts/rps_v2.sol\":1733:2179  if (player1move == Move.ROCK && player2move == Move.SCISSOR ||... */\n      iszero\n      tag_65\n      jumpi\n        /* \"contracts/rps_v2.sol\":1991:2001  winnerPaid */\n      0x04\n      0x01\n      swap1\n      sload\n      swap1\n      0x0100\n      exp\n      swap1\n      pop\n      pop\n        /* \"contracts/rps_v2.sol\":2038:2061  return \"Player 1 wins!\" */\n      mload(0x40)\n      dup1\n      0x40\n      add\n      0x40\n      mstore\n      dup1\n      0x0e\n      dup2\n      mstore\n      0x20\n      add\n      0x506c6179657220312077696e7321000000000000000000000000000000000000\n      dup2\n      mstore\n      pop\n      swap1\n      pop\n      jump(tag_24)\n        /* \"contracts/rps_v2.sol\":1733:2179  if (player1move == Move.ROCK && player2move == Move.SCISSOR ||... */\n    tag_65:\n        /* \"contracts/rps_v2.sol\":2105:2115  winnerPaid */\n      0x04\n      0x01\n      swap1\n      sload\n      swap1\n      0x0100\n      exp\n      swap1\n      pop\n      pop\n        /* \"contracts/rps_v2.sol\":2141:2164  return \"Player 2 wins!\" */\n      mload(0x40)\n      dup1\n      0x40\n      add\n      0x40\n      mstore\n      dup1\n      0x0e\n      dup2\n      mstore\n      0x20\n      add\n      0x506c6179657220322077696e7321000000000000000000000000000000000000\n      dup2\n      mstore\n      pop\n      swap1\n      pop\n      jump(tag_24)\n        /* \"contracts/rps_v2.sol\":1473:2258  if (player1 != address(0) && player2 != address(0)) {... */\n    tag_26:\n        /* \"contracts/rps_v2.sol\":2209:2247  return \"Wait for all players to move!\" */\n      mload(0x40)\n      dup1\n      0x40\n      add\n      0x40\n      mstore\n      dup1\n      0x1d\n      dup2\n      mstore\n      0x20\n      add\n      0x5761697420666f7220616c6c20706c617965727320746f206d6f766521000000\n      dup2\n      mstore\n      pop\n      swap1\n      pop\n        /* \"contracts/rps_v2.sol\":1410:2264  function decide() public view returns(string memory) {... */\n    tag_24:\n      swap1\n      jump\t// out\n        /* \"contracts/rps_v2.sol\":2783:2918  function balance() external view returns(uint) {... */\n    tag_13:\n        /* \"contracts/rps_v2.sol\":2824:2828  uint */\n      0x00\n        /* \"contracts/rps_v2.sol\":2890:2911  address(this).balance */\n      selfbalance\n        /* \"contracts/rps_v2.sol\":2883:2911  return address(this).balance */\n      swap1\n      pop\n        /* \"contracts/rps_v2.sol\":2783:2918  function balance() external view returns(uint) {... */\n      swap1\n      jump\t// out\n        /* \"contracts/rps_v2.sol\":556:1404  function play(address payable player, Move move) public payable returns(string memory) {... */\n    tag_19:\n        /* \"contracts/rps_v2.sol\":628:641  string memory */\n      0x60\n        /* \"contracts/rps_v2.sol\":728:735  1 ether */\n      0x0de0b6b3a7640000\n        /* \"contracts/rps_v2.sol\":715:724  msg.value */\n      callvalue\n        /* \"contracts/rps_v2.sol\":715:735  msg.value != 1 ether */\n      eq\n        /* \"contracts/rps_v2.sol\":711:797  if (msg.value != 1 ether){... */\n      tag_72\n      jumpi\n        /* \"contracts/rps_v2.sol\":750:786  revert(\"1 ETH exactly is required!\") */\n      mload(0x40)\n      0x08c379a000000000000000000000000000000000000000000000000000000000\n      dup2\n      mstore\n      0x04\n      add\n      tag_73\n      swap1\n      tag_74\n      jump\t// in\n    tag_73:\n      mload(0x40)\n      dup1\n      swap2\n      sub\n      swap1\n      revert\n        /* \"contracts/rps_v2.sol\":711:797  if (msg.value != 1 ether){... */\n    tag_72:\n        /* \"contracts/rps_v2.sol\":878:879  0 */\n      0x00\n        /* \"contracts/rps_v2.sol\":859:880  player1 == address(0) */\n      0xffffffffffffffffffffffffffffffffffffffff\n      and\n        /* \"contracts/rps_v2.sol\":859:866  player1 */\n      0x00\n      dup1\n      sload\n      swap1\n      0x0100\n      exp\n      swap1\n      div\n      0xffffffffffffffffffffffffffffffffffffffff\n      and\n        /* \"contracts/rps_v2.sol\":859:880  player1 == address(0) */\n      0xffffffffffffffffffffffffffffffffffffffff\n      and\n      eq\n        /* \"contracts/rps_v2.sol\":855:1398  if (player1 == address(0)) {... */\n      iszero\n      tag_75\n      jumpi\n        /* \"contracts/rps_v2.sol\":906:912  player */\n      dup3\n        /* \"contracts/rps_v2.sol\":896:903  player1 */\n      0x00\n      dup1\n        /* \"contracts/rps_v2.sol\":896:912  player1 = player */\n      0x0100\n      exp\n      dup2\n      sload\n      dup2\n      0xffffffffffffffffffffffffffffffffffffffff\n      mul\n      not\n      and\n      swap1\n      dup4\n      0xffffffffffffffffffffffffffffffffffffffff\n      and\n      mul\n      or\n      swap1\n      sstore\n      pop\n        /* \"contracts/rps_v2.sol\":940:944  move */\n      dup2\n        /* \"contracts/rps_v2.sol\":926:937  player1move */\n      0x01\n      0x14\n        /* \"contracts/rps_v2.sol\":926:944  player1move = move */\n      0x0100\n      exp\n      dup2\n      sload\n      dup2\n      0xff\n      mul\n      not\n      and\n      swap1\n      dup4\n      0x02\n      dup2\n      gt\n      iszero\n      tag_76\n      jumpi\n      tag_77\n      tag_29\n      jump\t// in\n    tag_77:\n    tag_76:\n      mul\n      or\n      swap1\n      sstore\n      pop\n        /* \"contracts/rps_v2.sol\":971:980  msg.value */\n      callvalue\n        /* \"contracts/rps_v2.sol\":958:968  player1bet */\n      0x02\n        /* \"contracts/rps_v2.sol\":958:980  player1bet = msg.value */\n      dup2\n      swap1\n      sstore\n      pop\n        /* \"contracts/rps_v2.sol\":994:1036  return \"1 ETH deposited, you're player 1!\" */\n      mload(0x40)\n      dup1\n      0x60\n      add\n      0x40\n      mstore\n      dup1\n      0x21\n      dup2\n      mstore\n      0x20\n      add\n      data_12325c0417659a3f602e0fd04ad238a9c5c474c7c758bf63c83cd9a47b78d41d\n      0x21\n      swap2\n      codecopy\n      swap1\n      pop\n      jump(tag_71)\n        /* \"contracts/rps_v2.sol\":855:1398  if (player1 == address(0)) {... */\n    tag_75:\n        /* \"contracts/rps_v2.sol\":1132:1133  0 */\n      0x00\n        /* \"contracts/rps_v2.sol\":1113:1134  player2 == address(0) */\n      0xffffffffffffffffffffffffffffffffffffffff\n      and\n        /* \"contracts/rps_v2.sol\":1113:1120  player2 */\n      0x01\n      0x00\n      swap1\n      sload\n      swap1\n      0x0100\n      exp\n      swap1\n      div\n      0xffffffffffffffffffffffffffffffffffffffff\n      and\n        /* \"contracts/rps_v2.sol\":1113:1134  player2 == address(0) */\n      0xffffffffffffffffffffffffffffffffffffffff\n      and\n      eq\n        /* \"contracts/rps_v2.sol\":1109:1398  if (player2 == address(0)) {... */\n      iszero\n      tag_79\n      jumpi\n        /* \"contracts/rps_v2.sol\":1160:1166  player */\n      dup3\n        /* \"contracts/rps_v2.sol\":1150:1157  player2 */\n      0x01\n      0x00\n        /* \"contracts/rps_v2.sol\":1150:1166  player2 = player */\n      0x0100\n      exp\n      dup2\n      sload\n      dup2\n      0xffffffffffffffffffffffffffffffffffffffff\n      mul\n      not\n      and\n      swap1\n      dup4\n      0xffffffffffffffffffffffffffffffffffffffff\n      and\n      mul\n      or\n      swap1\n      sstore\n      pop\n        /* \"contracts/rps_v2.sol\":1194:1198  move */\n      dup2\n        /* \"contracts/rps_v2.sol\":1180:1191  player2move */\n      0x01\n      0x15\n        /* \"contracts/rps_v2.sol\":1180:1198  player2move = move */\n      0x0100\n      exp\n      dup2\n      sload\n      dup2\n      0xff\n      mul\n      not\n      and\n      swap1\n      dup4\n      0x02\n      dup2\n      gt\n      iszero\n      tag_80\n      jumpi\n      tag_81\n      tag_29\n      jump\t// in\n    tag_81:\n    tag_80:\n      mul\n      or\n      swap1\n      sstore\n      pop\n        /* \"contracts/rps_v2.sol\":1225:1234  msg.value */\n      callvalue\n        /* \"contracts/rps_v2.sol\":1212:1222  player2bet */\n      0x03\n        /* \"contracts/rps_v2.sol\":1212:1234  player2bet = msg.value */\n      dup2\n      swap1\n      sstore\n      pop\n        /* \"contracts/rps_v2.sol\":1248:1290  return \"1 ETH deposited, you're player 2!\" */\n      mload(0x40)\n      dup1\n      0x60\n      add\n      0x40\n      mstore\n      dup1\n      0x21\n      dup2\n      mstore\n      0x20\n      add\n      data_83dac46e13f1ba48641bf04df7a094829f7c53406576a61c0dbd66a4269cec0e\n      0x21\n      swap2\n      codecopy\n      swap1\n      pop\n      jump(tag_71)\n        /* \"contracts/rps_v2.sol\":1109:1398  if (player2 == address(0)) {... */\n    tag_79:\n        /* \"contracts/rps_v2.sol\":1321:1387  return \"Both players have been assigned, wait for game to finish!\" */\n      mload(0x40)\n      dup1\n      0x60\n      add\n      0x40\n      mstore\n      dup1\n      0x39\n      dup2\n      mstore\n      0x20\n      add\n      data_996d2bd178980130f6d4f8ca955ba5e2e300e2170f208078375c226f18ac3dc0\n      0x39\n      swap2\n      codecopy\n      swap1\n      pop\n        /* \"contracts/rps_v2.sol\":556:1404  function play(address payable player, Move move) public payable returns(string memory) {... */\n    tag_71:\n      swap3\n      swap2\n      pop\n      pop\n      jump\t// out\n        /* \"contracts/rps_v2.sol\":2614:2777  function reset() public {... */\n    tag_23:\n        /* \"contracts/rps_v2.sol\":2655:2662  player1 */\n      0x00\n      dup1\n        /* \"contracts/rps_v2.sol\":2648:2662  delete player1 */\n      0x0100\n      exp\n      dup2\n      sload\n      swap1\n      0xffffffffffffffffffffffffffffffffffffffff\n      mul\n      not\n      and\n      swap1\n      sstore\n        /* \"contracts/rps_v2.sol\":2679:2690  player1move */\n      0x01\n      0x14\n        /* \"contracts/rps_v2.sol\":2672:2690  delete player1move */\n      0x0100\n      exp\n      dup2\n      sload\n      swap1\n      0xff\n      mul\n      not\n      and\n      swap1\n      sstore\n        /* \"contracts/rps_v2.sol\":2707:2714  player2 */\n      0x01\n      0x00\n        /* \"contracts/rps_v2.sol\":2700:2714  delete player2 */\n      0x0100\n      exp\n      dup2\n      sload\n      swap1\n      0xffffffffffffffffffffffffffffffffffffffff\n      mul\n      not\n      and\n      swap1\n      sstore\n        /* \"contracts/rps_v2.sol\":2731:2742  player2move */\n      0x01\n      0x15\n        /* \"contracts/rps_v2.sol\":2724:2742  delete player2move */\n      0x0100\n      exp\n      dup2\n      sload\n      swap1\n      0xff\n      mul\n      not\n      and\n      swap1\n      sstore\n        /* \"contracts/rps_v2.sol\":2765:2770  false */\n      0x00\n        /* \"contracts/rps_v2.sol\":2752:2762  winnerPaid */\n      0x04\n      0x01\n        /* \"contracts/rps_v2.sol\":2752:2770  winnerPaid = false */\n      0x0100\n      exp\n      dup2\n      sload\n      dup2\n      0xff\n      mul\n      not\n      and\n      swap1\n      dup4\n      iszero\n      iszero\n      mul\n      or\n      swap1\n      sstore\n      pop\n        /* \"contracts/rps_v2.sol\":2614:2777  function reset() public {... */\n      jump\t// out\n        /* \"#utility.yul\":7:162   */\n    tag_106:\n        /* \"#utility.yul\":61:66   */\n      0x00\n        /* \"#utility.yul\":99:105   */\n      dup2\n        /* \"#utility.yul\":86:106   */\n      calldataload\n        /* \"#utility.yul\":77:106   */\n      swap1\n      pop\n        /* \"#utility.yul\":115:156   */\n      tag_108\n        /* \"#utility.yul\":150:155   */\n      dup2\n        /* \"#utility.yul\":115:156   */\n      tag_109\n      jump\t// in\n    tag_108:\n        /* \"#utility.yul\":7:162   */\n      swap3\n      swap2\n      pop\n      pop\n      jump\t// out\n        /* \"#utility.yul\":168:319   */\n    tag_110:\n        /* \"#utility.yul\":220:225   */\n      0x00\n        /* \"#utility.yul\":258:264   */\n      dup2\n        /* \"#utility.yul\":245:265   */\n      calldataload\n        /* \"#utility.yul\":236:265   */\n      swap1\n      pop\n        /* \"#utility.yul\":274:313   */\n      tag_112\n        /* \"#utility.yul\":307:312   */\n      dup2\n        /* \"#utility.yul\":274:313   */\n      tag_113\n      jump\t// in\n    tag_112:\n        /* \"#utility.yul\":168:319   */\n      swap3\n      swap2\n      pop\n      pop\n      jump\t// out\n        /* \"#utility.yul\":325:827   */\n    tag_18:\n        /* \"#utility.yul\":407:413   */\n      0x00\n        /* \"#utility.yul\":415:421   */\n      dup1\n        /* \"#utility.yul\":464:466   */\n      0x40\n        /* \"#utility.yul\":452:461   */\n      dup4\n        /* \"#utility.yul\":443:450   */\n      dup6\n        /* \"#utility.yul\":439:462   */\n      sub\n        /* \"#utility.yul\":435:467   */\n      slt\n        /* \"#utility.yul\":432:551   */\n      iszero\n      tag_115\n      jumpi\n        /* \"#utility.yul\":470:549   */\n      tag_116\n      tag_117\n      jump\t// in\n    tag_116:\n        /* \"#utility.yul\":432:551   */\n    tag_115:\n        /* \"#utility.yul\":590:591   */\n      0x00\n        /* \"#utility.yul\":615:676   */\n      tag_118\n        /* \"#utility.yul\":668:675   */\n      dup6\n        /* \"#utility.yul\":659:665   */\n      dup3\n        /* \"#utility.yul\":648:657   */\n      dup7\n        /* \"#utility.yul\":644:666   */\n      add\n        /* \"#utility.yul\":615:676   */\n      tag_106\n      jump\t// in\n    tag_118:\n        /* \"#utility.yul\":605:676   */\n      swap3\n      pop\n        /* \"#utility.yul\":561:686   */\n      pop\n        /* \"#utility.yul\":725:727   */\n      0x20\n        /* \"#utility.yul\":751:810   */\n      tag_119\n        /* \"#utility.yul\":802:809   */\n      dup6\n        /* \"#utility.yul\":793:799   */\n      dup3\n        /* \"#utility.yul\":782:791   */\n      dup7\n        /* \"#utility.yul\":778:800   */\n      add\n        /* \"#utility.yul\":751:810   */\n      tag_110\n      jump\t// in\n    tag_119:\n        /* \"#utility.yul\":741:810   */\n      swap2\n      pop\n        /* \"#utility.yul\":696:820   */\n      pop\n        /* \"#utility.yul\":325:827   */\n      swap3\n      pop\n      swap3\n      swap1\n      pop\n      jump\t// out\n        /* \"#utility.yul\":833:1197   */\n    tag_120:\n        /* \"#utility.yul\":921:924   */\n      0x00\n        /* \"#utility.yul\":949:988   */\n      tag_122\n        /* \"#utility.yul\":982:987   */\n      dup3\n        /* \"#utility.yul\":949:988   */\n      tag_123\n      jump\t// in\n    tag_122:\n        /* \"#utility.yul\":1004:1075   */\n      tag_124\n        /* \"#utility.yul\":1068:1074   */\n      dup2\n        /* \"#utility.yul\":1063:1066   */\n      dup6\n        /* \"#utility.yul\":1004:1075   */\n      tag_125\n      jump\t// in\n    tag_124:\n        /* \"#utility.yul\":997:1075   */\n      swap4\n      pop\n        /* \"#utility.yul\":1084:1136   */\n      tag_126\n        /* \"#utility.yul\":1129:1135   */\n      dup2\n        /* \"#utility.yul\":1124:1127   */\n      dup6\n        /* \"#utility.yul\":1117:1121   */\n      0x20\n        /* \"#utility.yul\":1110:1115   */\n      dup7\n        /* \"#utility.yul\":1106:1122   */\n      add\n        /* \"#utility.yul\":1084:1136   */\n      tag_127\n      jump\t// in\n    tag_126:\n        /* \"#utility.yul\":1161:1190   */\n      tag_128\n        /* \"#utility.yul\":1183:1189   */\n      dup2\n        /* \"#utility.yul\":1161:1190   */\n      tag_129\n      jump\t// in\n    tag_128:\n        /* \"#utility.yul\":1156:1159   */\n      dup5\n        /* \"#utility.yul\":1152:1191   */\n      add\n        /* \"#utility.yul\":1145:1191   */\n      swap2\n      pop\n        /* \"#utility.yul\":925:1197   */\n      pop\n        /* \"#utility.yul\":833:1197   */\n      swap3\n      swap2\n      pop\n      pop\n      jump\t// out\n        /* \"#utility.yul\":1203:1569   */\n    tag_130:\n        /* \"#utility.yul\":1345:1348   */\n      0x00\n        /* \"#utility.yul\":1366:1433   */\n      tag_132\n        /* \"#utility.yul\":1430:1432   */\n      0x1a\n        /* \"#utility.yul\":1425:1428   */\n      dup4\n        /* \"#utility.yul\":1366:1433   */\n      tag_125\n      jump\t// in\n    tag_132:\n        /* \"#utility.yul\":1359:1433   */\n      swap2\n      pop\n        /* \"#utility.yul\":1442:1535   */\n      tag_133\n        /* \"#utility.yul\":1531:1534   */\n      dup3\n        /* \"#utility.yul\":1442:1535   */\n      tag_134\n      jump\t// in\n    tag_133:\n        /* \"#utility.yul\":1560:1562   */\n      0x20\n        /* \"#utility.yul\":1555:1558   */\n      dup3\n        /* \"#utility.yul\":1551:1563   */\n      add\n        /* \"#utility.yul\":1544:1563   */\n      swap1\n      pop\n        /* \"#utility.yul\":1203:1569   */\n      swap2\n      swap1\n      pop\n      jump\t// out\n        /* \"#utility.yul\":1575:1693   */\n    tag_135:\n        /* \"#utility.yul\":1662:1686   */\n      tag_137\n        /* \"#utility.yul\":1680:1685   */\n      dup2\n        /* \"#utility.yul\":1662:1686   */\n      tag_138\n      jump\t// in\n    tag_137:\n        /* \"#utility.yul\":1657:1660   */\n      dup3\n        /* \"#utility.yul\":1650:1687   */\n      mstore\n        /* \"#utility.yul\":1575:1693   */\n      pop\n      pop\n      jump\t// out\n        /* \"#utility.yul\":1699:2012   */\n    tag_10:\n        /* \"#utility.yul\":1812:1816   */\n      0x00\n        /* \"#utility.yul\":1850:1852   */\n      0x20\n        /* \"#utility.yul\":1839:1848   */\n      dup3\n        /* \"#utility.yul\":1835:1853   */\n      add\n        /* \"#utility.yul\":1827:1853   */\n      swap1\n      pop\n        /* \"#utility.yul\":1899:1908   */\n      dup2\n        /* \"#utility.yul\":1893:1897   */\n      dup2\n        /* \"#utility.yul\":1889:1909   */\n      sub\n        /* \"#utility.yul\":1885:1886   */\n      0x00\n        /* \"#utility.yul\":1874:1883   */\n      dup4\n        /* \"#utility.yul\":1870:1887   */\n      add\n        /* \"#utility.yul\":1863:1910   */\n      mstore\n        /* \"#utility.yul\":1927:2005   */\n      tag_140\n        /* \"#utility.yul\":2000:2004   */\n      dup2\n        /* \"#utility.yul\":1991:1997   */\n      dup5\n        /* \"#utility.yul\":1927:2005   */\n      tag_120\n      jump\t// in\n    tag_140:\n        /* \"#utility.yul\":1919:2005   */\n      swap1\n      pop\n        /* \"#utility.yul\":1699:2012   */\n      swap3\n      swap2\n      pop\n      pop\n      jump\t// out\n        /* \"#utility.yul\":2018:2437   */\n    tag_74:\n        /* \"#utility.yul\":2184:2188   */\n      0x00\n        /* \"#utility.yul\":2222:2224   */\n      0x20\n        /* \"#utility.yul\":2211:2220   */\n      dup3\n        /* \"#utility.yul\":2207:2225   */\n      add\n        /* \"#utility.yul\":2199:2225   */\n      swap1\n      pop\n        /* \"#utility.yul\":2271:2280   */\n      dup2\n        /* \"#utility.yul\":2265:2269   */\n      dup2\n        /* \"#utility.yul\":2261:2281   */\n      sub\n        /* \"#utility.yul\":2257:2258   */\n      0x00\n        /* \"#utility.yul\":2246:2255   */\n      dup4\n        /* \"#utility.yul\":2242:2259   */\n      add\n        /* \"#utility.yul\":2235:2282   */\n      mstore\n        /* \"#utility.yul\":2299:2430   */\n      tag_142\n        /* \"#utility.yul\":2425:2429   */\n      dup2\n        /* \"#utility.yul\":2299:2430   */\n      tag_130\n      jump\t// in\n    tag_142:\n        /* \"#utility.yul\":2291:2430   */\n      swap1\n      pop\n        /* \"#utility.yul\":2018:2437   */\n      swap2\n      swap1\n      pop\n      jump\t// out\n        /* \"#utility.yul\":2443:2665   */\n    tag_15:\n        /* \"#utility.yul\":2536:2540   */\n      0x00\n        /* \"#utility.yul\":2574:2576   */\n      0x20\n        /* \"#utility.yul\":2563:2572   */\n      dup3\n        /* \"#utility.yul\":2559:2577   */\n      add\n        /* \"#utility.yul\":2551:2577   */\n      swap1\n      pop\n        /* \"#utility.yul\":2587:2658   */\n      tag_144\n        /* \"#utility.yul\":2655:2656   */\n      0x00\n        /* \"#utility.yul\":2644:2653   */\n      dup4\n        /* \"#utility.yul\":2640:2657   */\n      add\n        /* \"#utility.yul\":2631:2637   */\n      dup5\n        /* \"#utility.yul\":2587:2658   */\n      tag_135\n      jump\t// in\n    tag_144:\n        /* \"#utility.yul\":2443:2665   */\n      swap3\n      swap2\n      pop\n      pop\n      jump\t// out\n        /* \"#utility.yul\":2752:2851   */\n    tag_123:\n        /* \"#utility.yul\":2804:2810   */\n      0x00\n        /* \"#utility.yul\":2838:2843   */\n      dup2\n        /* \"#utility.yul\":2832:2844   */\n      mload\n        /* \"#utility.yul\":2822:2844   */\n      swap1\n      pop\n        /* \"#utility.yul\":2752:2851   */\n      swap2\n      swap1\n      pop\n      jump\t// out\n        /* \"#utility.yul\":2857:3026   */\n    tag_125:\n        /* \"#utility.yul\":2941:2952   */\n      0x00\n        /* \"#utility.yul\":2975:2981   */\n      dup3\n        /* \"#utility.yul\":2970:2973   */\n      dup3\n        /* \"#utility.yul\":2963:2982   */\n      mstore\n        /* \"#utility.yul\":3015:3019   */\n      0x20\n        /* \"#utility.yul\":3010:3013   */\n      dup3\n        /* \"#utility.yul\":3006:3020   */\n      add\n        /* \"#utility.yul\":2991:3020   */\n      swap1\n      pop\n        /* \"#utility.yul\":2857:3026   */\n      swap3\n      swap2\n      pop\n      pop\n      jump\t// out\n        /* \"#utility.yul\":3032:3136   */\n    tag_149:\n        /* \"#utility.yul\":3077:3084   */\n      0x00\n        /* \"#utility.yul\":3106:3130   */\n      tag_151\n        /* \"#utility.yul\":3124:3129   */\n      dup3\n        /* \"#utility.yul\":3106:3130   */\n      tag_152\n      jump\t// in\n    tag_151:\n        /* \"#utility.yul\":3095:3130   */\n      swap1\n      pop\n        /* \"#utility.yul\":3032:3136   */\n      swap2\n      swap1\n      pop\n      jump\t// out\n        /* \"#utility.yul\":3142:3268   */\n    tag_152:\n        /* \"#utility.yul\":3179:3186   */\n      0x00\n        /* \"#utility.yul\":3219:3261   */\n      0xffffffffffffffffffffffffffffffffffffffff\n        /* \"#utility.yul\":3212:3217   */\n      dup3\n        /* \"#utility.yul\":3208:3262   */\n      and\n        /* \"#utility.yul\":3197:3262   */\n      swap1\n      pop\n        /* \"#utility.yul\":3142:3268   */\n      swap2\n      swap1\n      pop\n      jump\t// out\n        /* \"#utility.yul\":3274:3351   */\n    tag_138:\n        /* \"#utility.yul\":3311:3318   */\n      0x00\n        /* \"#utility.yul\":3340:3345   */\n      dup2\n        /* \"#utility.yul\":3329:3345   */\n      swap1\n      pop\n        /* \"#utility.yul\":3274:3351   */\n      swap2\n      swap1\n      pop\n      jump\t// out\n        /* \"#utility.yul\":3357:3664   */\n    tag_127:\n        /* \"#utility.yul\":3425:3426   */\n      0x00\n        /* \"#utility.yul\":3435:3548   */\n    tag_156:\n        /* \"#utility.yul\":3449:3455   */\n      dup4\n        /* \"#utility.yul\":3446:3447   */\n      dup2\n        /* \"#utility.yul\":3443:3456   */\n      lt\n        /* \"#utility.yul\":3435:3548   */\n      iszero\n      tag_158\n      jumpi\n        /* \"#utility.yul\":3534:3535   */\n      dup1\n        /* \"#utility.yul\":3529:3532   */\n      dup3\n        /* \"#utility.yul\":3525:3536   */\n      add\n        /* \"#utility.yul\":3519:3537   */\n      mload\n        /* \"#utility.yul\":3515:3516   */\n      dup2\n        /* \"#utility.yul\":3510:3513   */\n      dup5\n        /* \"#utility.yul\":3506:3517   */\n      add\n        /* \"#utility.yul\":3499:3538   */\n      mstore\n        /* \"#utility.yul\":3471:3473   */\n      0x20\n        /* \"#utility.yul\":3468:3469   */\n      dup2\n        /* \"#utility.yul\":3464:3474   */\n      add\n        /* \"#utility.yul\":3459:3474   */\n      swap1\n      pop\n        /* \"#utility.yul\":3435:3548   */\n      jump(tag_156)\n    tag_158:\n        /* \"#utility.yul\":3566:3572   */\n      dup4\n        /* \"#utility.yul\":3563:3564   */\n      dup2\n        /* \"#utility.yul\":3560:3573   */\n      gt\n        /* \"#utility.yul\":3557:3658   */\n      iszero\n      tag_159\n      jumpi\n        /* \"#utility.yul\":3646:3647   */\n      0x00\n        /* \"#utility.yul\":3637:3643   */\n      dup5\n        /* \"#utility.yul\":3632:3635   */\n      dup5\n        /* \"#utility.yul\":3628:3644   */\n      add\n        /* \"#utility.yul\":3621:3648   */\n      mstore\n        /* \"#utility.yul\":3557:3658   */\n    tag_159:\n        /* \"#utility.yul\":3406:3664   */\n      pop\n        /* \"#utility.yul\":3357:3664   */\n      pop\n      pop\n      pop\n      jump\t// out\n        /* \"#utility.yul\":3670:3850   */\n    tag_29:\n        /* \"#utility.yul\":3718:3795   */\n      0x4e487b7100000000000000000000000000000000000000000000000000000000\n        /* \"#utility.yul\":3715:3716   */\n      0x00\n        /* \"#utility.yul\":3708:3796   */\n      mstore\n        /* \"#utility.yul\":3815:3819   */\n      0x21\n        /* \"#utility.yul\":3812:3813   */\n      0x04\n        /* \"#utility.yul\":3805:3820   */\n      mstore\n        /* \"#utility.yul\":3839:3843   */\n      0x24\n        /* \"#utility.yul\":3836:3837   */\n      0x00\n        /* \"#utility.yul\":3829:3844   */\n      revert\n        /* \"#utility.yul\":3979:4096   */\n    tag_117:\n        /* \"#utility.yul\":4088:4089   */\n      0x00\n        /* \"#utility.yul\":4085:4086   */\n      dup1\n        /* \"#utility.yul\":4078:4090   */\n      revert\n        /* \"#utility.yul\":4102:4204   */\n    tag_129:\n        /* \"#utility.yul\":4143:4149   */\n      0x00\n        /* \"#utility.yul\":4194:4196   */\n      0x1f\n        /* \"#utility.yul\":4190:4197   */\n      not\n        /* \"#utility.yul\":4185:4187   */\n      0x1f\n        /* \"#utility.yul\":4178:4183   */\n      dup4\n        /* \"#utility.yul\":4174:4188   */\n      add\n        /* \"#utility.yul\":4170:4198   */\n      and\n        /* \"#utility.yul\":4160:4198   */\n      swap1\n      pop\n        /* \"#utility.yul\":4102:4204   */\n      swap2\n      swap1\n      pop\n      jump\t// out\n        /* \"#utility.yul\":4210:4386   */\n    tag_134:\n        /* \"#utility.yul\":4350:4378   */\n      0x31204554482065786163746c7920697320726571756972656421000000000000\n        /* \"#utility.yul\":4346:4347   */\n      0x00\n        /* \"#utility.yul\":4338:4344   */\n      dup3\n        /* \"#utility.yul\":4334:4348   */\n      add\n        /* \"#utility.yul\":4327:4379   */\n      mstore\n        /* \"#utility.yul\":4210:4386   */\n      pop\n      jump\t// out\n        /* \"#utility.yul\":4392:4530   */\n    tag_109:\n        /* \"#utility.yul\":4473:4505   */\n      tag_167\n        /* \"#utility.yul\":4499:4504   */\n      dup2\n        /* \"#utility.yul\":4473:4505   */\n      tag_149\n      jump\t// in\n    tag_167:\n        /* \"#utility.yul\":4466:4471   */\n      dup2\n        /* \"#utility.yul\":4463:4506   */\n      eq\n        /* \"#utility.yul\":4453:4524   */\n      tag_168\n      jumpi\n        /* \"#utility.yul\":4520:4521   */\n      0x00\n        /* \"#utility.yul\":4517:4518   */\n      dup1\n        /* \"#utility.yul\":4510:4522   */\n      revert\n        /* \"#utility.yul\":4453:4524   */\n    tag_168:\n        /* \"#utility.yul\":4392:4530   */\n      pop\n      jump\t// out\n        /* \"#utility.yul\":4536:4641   */\n    tag_113:\n        /* \"#utility.yul\":4615:4616   */\n      0x03\n        /* \"#utility.yul\":4608:4613   */\n      dup2\n        /* \"#utility.yul\":4605:4617   */\n      lt\n        /* \"#utility.yul\":4595:4635   */\n      tag_170\n      jumpi\n        /* \"#utility.yul\":4631:4632   */\n      0x00\n        /* \"#utility.yul\":4628:4629   */\n      dup1\n        /* \"#utility.yul\":4621:4633   */\n      revert\n        /* \"#utility.yul\":4595:4635   */\n    tag_170:\n        /* \"#utility.yul\":4536:4641   */\n      pop\n      jump\t// out\n    stop\n    data_12325c0417659a3f602e0fd04ad238a9c5c474c7c758bf63c83cd9a47b78d41d 3120455448206465706f73697465642c20796f7527726520706c61796572203121\n    data_83dac46e13f1ba48641bf04df7a094829f7c53406576a61c0dbd66a4269cec0e 3120455448206465706f73697465642c20796f7527726520706c61796572203221\n    data_996d2bd178980130f6d4f8ca955ba5e2e300e2170f208078375c226f18ac3dc0 426f746820706c61796572732068617665206265656e2061737369676e65642c207761697420666f722067616d6520746f2066696e69736821\n\n    auxdata: 0xa264697066735822122067a5f7a335388a25920c3e05577de750913311061ed6b632e1327fbac742ed5164736f6c63430008070033\n}\n",
				"bytecode": {
					"linkReferences": {},
					"object": "60806040526000600460016101000a81548160ff02191690831515021790555034801561002b57600080fd5b50610a408061003b6000396000f3fe60806040526004361061003f5760003560e01c8063305fcef314610044578063b69ef8a81461006f578063bca7437b1461009a578063d826f88f146100ca575b600080fd5b34801561005057600080fd5b506100596100e1565b6040516100669190610812565b60405180910390f35b34801561007b57600080fd5b5061008461046e565b6040516100919190610854565b60405180910390f35b6100b460048036038101906100af9190610767565b610476565b6040516100c19190610812565b60405180910390f35b3480156100d657600080fd5b506100df6106b3565b005b6060600073ffffffffffffffffffffffffffffffffffffffff1660008054906101000a900473ffffffffffffffffffffffffffffffffffffffff1673ffffffffffffffffffffffffffffffffffffffff161415801561018f5750600073ffffffffffffffffffffffffffffffffffffffff16600160009054906101000a900473ffffffffffffffffffffffffffffffffffffffff1673ffffffffffffffffffffffffffffffffffffffff1614155b1561043257600160159054906101000a900460ff1660028111156101b6576101b56108fa565b5b600160149054906101000a900460ff1660028111156101d8576101d76108fa565b5b141561022957600460019054906101000a9050506040518060400160405280600581526020017f4472617721000000000000000000000000000000000000000000000000000000815250905061046b565b6000600281111561023d5761023c6108fa565b5b600160149054906101000a900460ff16600281111561025f5761025e6108fa565b5b14801561029e575060028081111561027a576102796108fa565b5b600160159054906101000a900460ff16600281111561029c5761029b6108fa565b5b145b8061031b5750600160028111156102b8576102b76108fa565b5b600160149054906101000a900460ff1660028111156102da576102d96108fa565b5b14801561031a5750600060028111156102f6576102f56108fa565b5b600160159054906101000a900460ff166002811115610318576103176108fa565b5b145b5b806103975750600280811115610334576103336108fa565b5b600160149054906101000a900460ff166002811115610356576103556108fa565b5b148015610396575060016002811115610372576103716108fa565b5b600160159054906101000a900460ff166002811115610394576103936108fa565b5b145b5b156103e757600460019054906101000a9050506040518060400160405280600e81526020017f506c6179657220312077696e7321000000000000000000000000000000000000815250905061046b565b600460019054906101000a9050506040518060400160405280600e81526020017f506c6179657220322077696e7321000000000000000000000000000000000000815250905061046b565b6040518060400160405280601d81526020017f5761697420666f7220616c6c20706c617965727320746f206d6f76652100000081525090505b90565b600047905090565b6060670de0b6b3a764000034146104c2576040517f08c379a00000000000000000000000000000000000000000000000000000000081526004016104b990610834565b60405180910390fd5b600073ffffffffffffffffffffffffffffffffffffffff1660008054906101000a900473ffffffffffffffffffffffffffffffffffffffff1673ffffffffffffffffffffffffffffffffffffffff1614156105a857826000806101000a81548173ffffffffffffffffffffffffffffffffffffffff021916908373ffffffffffffffffffffffffffffffffffffffff16021790555081600160146101000a81548160ff0219169083600281111561057c5761057b6108fa565b5b0217905550346002819055506040518060600160405280602181526020016109906021913990506106ad565b600073ffffffffffffffffffffffffffffffffffffffff16600160009054906101000a900473ffffffffffffffffffffffffffffffffffffffff1673ffffffffffffffffffffffffffffffffffffffff1614156106915782600160006101000a81548173ffffffffffffffffffffffffffffffffffffffff021916908373ffffffffffffffffffffffffffffffffffffffff16021790555081600160156101000a81548160ff02191690836002811115610665576106646108fa565b5b0217905550346003819055506040518060600160405280602181526020016109b16021913990506106ad565b6040518060600160405280603981526020016109d26039913990505b92915050565b6000806101000a81549073ffffffffffffffffffffffffffffffffffffffff0219169055600160146101000a81549060ff0219169055600160006101000a81549073ffffffffffffffffffffffffffffffffffffffff0219169055600160156101000a81549060ff02191690556000600460016101000a81548160ff021916908315150217905550565b60008135905061074c81610968565b92915050565b6000813590506107618161097f565b92915050565b6000806040838503121561077e5761077d610929565b5b600061078c8582860161073d565b925050602061079d85828601610752565b9150509250929050565b60006107b28261086f565b6107bc818561087a565b93506107cc8185602086016108c7565b6107d58161092e565b840191505092915050565b60006107ed601a8361087a565b91506107f88261093f565b602082019050919050565b61080c816108bd565b82525050565b6000602082019050818103600083015261082c81846107a7565b905092915050565b6000602082019050818103600083015261084d816107e0565b9050919050565b60006020820190506108696000830184610803565b92915050565b600081519050919050565b600082825260208201905092915050565b60006108968261089d565b9050919050565b600073ffffffffffffffffffffffffffffffffffffffff82169050919050565b6000819050919050565b60005b838110156108e55780820151818401526020810190506108ca565b838111156108f4576000848401525b50505050565b7f4e487b7100000000000000000000000000000000000000000000000000000000600052602160045260246000fd5b600080fd5b6000601f19601f8301169050919050565b7f31204554482065786163746c7920697320726571756972656421000000000000600082015250565b6109718161088b565b811461097c57600080fd5b50565b6003811061098c57600080fd5b5056fe3120455448206465706f73697465642c20796f7527726520706c617965722031213120455448206465706f73697465642c20796f7527726520706c61796572203221426f746820706c61796572732068617665206265656e2061737369676e65642c207761697420666f722067616d6520746f2066696e69736821a264697066735822122067a5f7a335388a25920c3e05577de750913311061ed6b632e1327fbac742ed5164736f6c63430008070033",
					"opcodes": "PUSH1 0x80 PUSH1 0x40 MSTORE PUSH1 0x0 PUSH1 0x4 PUSH1 0x1 PUSH2 0x100 EXP DUP2 SLOAD DUP2 PUSH1 0xFF MUL NOT AND SWAP1 DUP4 ISZERO ISZERO MUL OR SWAP1 SSTORE POP CALLVALUE DUP1 ISZERO PUSH2 0x2B JUMPI PUSH1 0x0 DUP1 REVERT JUMPDEST POP PUSH2 0xA40 DUP1 PUSH2 0x3B PUSH1 0x0 CODECOPY PUSH1 0x0 RETURN INVALID PUSH1 0x80 PUSH1 0x40 MSTORE PUSH1 0x4 CALLDATASIZE LT PUSH2 0x3F JUMPI PUSH1 0x0 CALLDATALOAD PUSH1 0xE0 SHR DUP1 PUSH4 0x305FCEF3 EQ PUSH2 0x44 JUMPI DUP1 PUSH4 0xB69EF8A8 EQ PUSH2 0x6F JUMPI DUP1 PUSH4 0xBCA7437B EQ PUSH2 0x9A JUMPI DUP1 PUSH4 0xD826F88F EQ PUSH2 0xCA JUMPI JUMPDEST PUSH1 0x0 DUP1 REVERT JUMPDEST CALLVALUE DUP1 ISZERO PUSH2 0x50 JUMPI PUSH1 0x0 DUP1 REVERT JUMPDEST POP PUSH2 0x59 PUSH2 0xE1 JUMP JUMPDEST PUSH1 0x40 MLOAD PUSH2 0x66 SWAP2 SWAP1 PUSH2 0x812 JUMP JUMPDEST PUSH1 0x40 MLOAD DUP1 SWAP2 SUB SWAP1 RETURN JUMPDEST CALLVALUE DUP1 ISZERO PUSH2 0x7B JUMPI PUSH1 0x0 DUP1 REVERT JUMPDEST POP PUSH2 0x84 PUSH2 0x46E JUMP JUMPDEST PUSH1 0x40 MLOAD PUSH2 0x91 SWAP2 SWAP1 PUSH2 0x854 JUMP JUMPDEST PUSH1 0x40 MLOAD DUP1 SWAP2 SUB SWAP1 RETURN JUMPDEST PUSH2 0xB4 PUSH1 0x4 DUP1 CALLDATASIZE SUB DUP2 ADD SWAP1 PUSH2 0xAF SWAP2 SWAP1 PUSH2 0x767 JUMP JUMPDEST PUSH2 0x476 JUMP JUMPDEST PUSH1 0x40 MLOAD PUSH2 0xC1 SWAP2 SWAP1 PUSH2 0x812 JUMP JUMPDEST PUSH1 0x40 MLOAD DUP1 SWAP2 SUB SWAP1 RETURN JUMPDEST CALLVALUE DUP1 ISZERO PUSH2 0xD6 JUMPI PUSH1 0x0 DUP1 REVERT JUMPDEST POP PUSH2 0xDF PUSH2 0x6B3 JUMP JUMPDEST STOP JUMPDEST PUSH1 0x60 PUSH1 0x0 PUSH20 0xFFFFFFFFFFFFFFFFFFFFFFFFFFFFFFFFFFFFFFFF AND PUSH1 0x0 DUP1 SLOAD SWAP1 PUSH2 0x100 EXP SWAP1 DIV PUSH20 0xFFFFFFFFFFFFFFFFFFFFFFFFFFFFFFFFFFFFFFFF AND PUSH20 0xFFFFFFFFFFFFFFFFFFFFFFFFFFFFFFFFFFFFFFFF AND EQ ISZERO DUP1 ISZERO PUSH2 0x18F JUMPI POP PUSH1 0x0 PUSH20 0xFFFFFFFFFFFFFFFFFFFFFFFFFFFFFFFFFFFFFFFF AND PUSH1 0x1 PUSH1 0x0 SWAP1 SLOAD SWAP1 PUSH2 0x100 EXP SWAP1 DIV PUSH20 0xFFFFFFFFFFFFFFFFFFFFFFFFFFFFFFFFFFFFFFFF AND PUSH20 0xFFFFFFFFFFFFFFFFFFFFFFFFFFFFFFFFFFFFFFFF AND EQ ISZERO JUMPDEST ISZERO PUSH2 0x432 JUMPI PUSH1 0x1 PUSH1 0x15 SWAP1 SLOAD SWAP1 PUSH2 0x100 EXP SWAP1 DIV PUSH1 0xFF AND PUSH1 0x2 DUP2 GT ISZERO PUSH2 0x1B6 JUMPI PUSH2 0x1B5 PUSH2 0x8FA JUMP JUMPDEST JUMPDEST PUSH1 0x1 PUSH1 0x14 SWAP1 SLOAD SWAP1 PUSH2 0x100 EXP SWAP1 DIV PUSH1 0xFF AND PUSH1 0x2 DUP2 GT ISZERO PUSH2 0x1D8 JUMPI PUSH2 0x1D7 PUSH2 0x8FA JUMP JUMPDEST JUMPDEST EQ ISZERO PUSH2 0x229 JUMPI PUSH1 0x4 PUSH1 0x1 SWAP1 SLOAD SWAP1 PUSH2 0x100 EXP SWAP1 POP POP PUSH1 0x40 MLOAD DUP1 PUSH1 0x40 ADD PUSH1 0x40 MSTORE DUP1 PUSH1 0x5 DUP2 MSTORE PUSH1 0x20 ADD PUSH32 0x4472617721000000000000000000000000000000000000000000000000000000 DUP2 MSTORE POP SWAP1 POP PUSH2 0x46B JUMP JUMPDEST PUSH1 0x0 PUSH1 0x2 DUP2 GT ISZERO PUSH2 0x23D JUMPI PUSH2 0x23C PUSH2 0x8FA JUMP JUMPDEST JUMPDEST PUSH1 0x1 PUSH1 0x14 SWAP1 SLOAD SWAP1 PUSH2 0x100 EXP SWAP1 DIV PUSH1 0xFF AND PUSH1 0x2 DUP2 GT ISZERO PUSH2 0x25F JUMPI PUSH2 0x25E PUSH2 0x8FA JUMP JUMPDEST JUMPDEST EQ DUP1 ISZERO PUSH2 0x29E JUMPI POP PUSH1 0x2 DUP1 DUP2 GT ISZERO PUSH2 0x27A JUMPI PUSH2 0x279 PUSH2 0x8FA JUMP JUMPDEST JUMPDEST PUSH1 0x1 PUSH1 0x15 SWAP1 SLOAD SWAP1 PUSH2 0x100 EXP SWAP1 DIV PUSH1 0xFF AND PUSH1 0x2 DUP2 GT ISZERO PUSH2 0x29C JUMPI PUSH2 0x29B PUSH2 0x8FA JUMP JUMPDEST JUMPDEST EQ JUMPDEST DUP1 PUSH2 0x31B JUMPI POP PUSH1 0x1 PUSH1 0x2 DUP2 GT ISZERO PUSH2 0x2B8 JUMPI PUSH2 0x2B7 PUSH2 0x8FA JUMP JUMPDEST JUMPDEST PUSH1 0x1 PUSH1 0x14 SWAP1 SLOAD SWAP1 PUSH2 0x100 EXP SWAP1 DIV PUSH1 0xFF AND PUSH1 0x2 DUP2 GT ISZERO PUSH2 0x2DA JUMPI PUSH2 0x2D9 PUSH2 0x8FA JUMP JUMPDEST JUMPDEST EQ DUP1 ISZERO PUSH2 0x31A JUMPI POP PUSH1 0x0 PUSH1 0x2 DUP2 GT ISZERO PUSH2 0x2F6 JUMPI PUSH2 0x2F5 PUSH2 0x8FA JUMP JUMPDEST JUMPDEST PUSH1 0x1 PUSH1 0x15 SWAP1 SLOAD SWAP1 PUSH2 0x100 EXP SWAP1 DIV PUSH1 0xFF AND PUSH1 0x2 DUP2 GT ISZERO PUSH2 0x318 JUMPI PUSH2 0x317 PUSH2 0x8FA JUMP JUMPDEST JUMPDEST EQ JUMPDEST JUMPDEST DUP1 PUSH2 0x397 JUMPI POP PUSH1 0x2 DUP1 DUP2 GT ISZERO PUSH2 0x334 JUMPI PUSH2 0x333 PUSH2 0x8FA JUMP JUMPDEST JUMPDEST PUSH1 0x1 PUSH1 0x14 SWAP1 SLOAD SWAP1 PUSH2 0x100 EXP SWAP1 DIV PUSH1 0xFF AND PUSH1 0x2 DUP2 GT ISZERO PUSH2 0x356 JUMPI PUSH2 0x355 PUSH2 0x8FA JUMP JUMPDEST JUMPDEST EQ DUP1 ISZERO PUSH2 0x396 JUMPI POP PUSH1 0x1 PUSH1 0x2 DUP2 GT ISZERO PUSH2 0x372 JUMPI PUSH2 0x371 PUSH2 0x8FA JUMP JUMPDEST JUMPDEST PUSH1 0x1 PUSH1 0x15 SWAP1 SLOAD SWAP1 PUSH2 0x100 EXP SWAP1 DIV PUSH1 0xFF AND PUSH1 0x2 DUP2 GT ISZERO PUSH2 0x394 JUMPI PUSH2 0x393 PUSH2 0x8FA JUMP JUMPDEST JUMPDEST EQ JUMPDEST JUMPDEST ISZERO PUSH2 0x3E7 JUMPI PUSH1 0x4 PUSH1 0x1 SWAP1 SLOAD SWAP1 PUSH2 0x100 EXP SWAP1 POP POP PUSH1 0x40 MLOAD DUP1 PUSH1 0x40 ADD PUSH1 0x40 MSTORE DUP1 PUSH1 0xE DUP2 MSTORE PUSH1 0x20 ADD PUSH32 0x506C6179657220312077696E7321000000000000000000000000000000000000 DUP2 MSTORE POP SWAP1 POP PUSH2 0x46B JUMP JUMPDEST PUSH1 0x4 PUSH1 0x1 SWAP1 SLOAD SWAP1 PUSH2 0x100 EXP SWAP1 POP POP PUSH1 0x40 MLOAD DUP1 PUSH1 0x40 ADD PUSH1 0x40 MSTORE DUP1 PUSH1 0xE DUP2 MSTORE PUSH1 0x20 ADD PUSH32 0x506C6179657220322077696E7321000000000000000000000000000000000000 DUP2 MSTORE POP SWAP1 POP PUSH2 0x46B JUMP JUMPDEST PUSH1 0x40 MLOAD DUP1 PUSH1 0x40 ADD PUSH1 0x40 MSTORE DUP1 PUSH1 0x1D DUP2 MSTORE PUSH1 0x20 ADD PUSH32 0x5761697420666F7220616C6C20706C617965727320746F206D6F766521000000 DUP2 MSTORE POP SWAP1 POP JUMPDEST SWAP1 JUMP JUMPDEST PUSH1 0x0 SELFBALANCE SWAP1 POP SWAP1 JUMP JUMPDEST PUSH1 0x60 PUSH8 0xDE0B6B3A7640000 CALLVALUE EQ PUSH2 0x4C2 JUMPI PUSH1 0x40 MLOAD PUSH32 0x8C379A000000000000000000000000000000000000000000000000000000000 DUP2 MSTORE PUSH1 0x4 ADD PUSH2 0x4B9 SWAP1 PUSH2 0x834 JUMP JUMPDEST PUSH1 0x40 MLOAD DUP1 SWAP2 SUB SWAP1 REVERT JUMPDEST PUSH1 0x0 PUSH20 0xFFFFFFFFFFFFFFFFFFFFFFFFFFFFFFFFFFFFFFFF AND PUSH1 0x0 DUP1 SLOAD SWAP1 PUSH2 0x100 EXP SWAP1 DIV PUSH20 0xFFFFFFFFFFFFFFFFFFFFFFFFFFFFFFFFFFFFFFFF AND PUSH20 0xFFFFFFFFFFFFFFFFFFFFFFFFFFFFFFFFFFFFFFFF AND EQ ISZERO PUSH2 0x5A8 JUMPI DUP3 PUSH1 0x0 DUP1 PUSH2 0x100 EXP DUP2 SLOAD DUP2 PUSH20 0xFFFFFFFFFFFFFFFFFFFFFFFFFFFFFFFFFFFFFFFF MUL NOT AND SWAP1 DUP4 PUSH20 0xFFFFFFFFFFFFFFFFFFFFFFFFFFFFFFFFFFFFFFFF AND MUL OR SWAP1 SSTORE POP DUP2 PUSH1 0x1 PUSH1 0x14 PUSH2 0x100 EXP DUP2 SLOAD DUP2 PUSH1 0xFF MUL NOT AND SWAP1 DUP4 PUSH1 0x2 DUP2 GT ISZERO PUSH2 0x57C JUMPI PUSH2 0x57B PUSH2 0x8FA JUMP JUMPDEST JUMPDEST MUL OR SWAP1 SSTORE POP CALLVALUE PUSH1 0x2 DUP2 SWAP1 SSTORE POP PUSH1 0x40 MLOAD DUP1 PUSH1 0x60 ADD PUSH1 0x40 MSTORE DUP1 PUSH1 0x21 DUP2 MSTORE PUSH1 0x20 ADD PUSH2 0x990 PUSH1 0x21 SWAP2 CODECOPY SWAP1 POP PUSH2 0x6AD JUMP JUMPDEST PUSH1 0x0 PUSH20 0xFFFFFFFFFFFFFFFFFFFFFFFFFFFFFFFFFFFFFFFF AND PUSH1 0x1 PUSH1 0x0 SWAP1 SLOAD SWAP1 PUSH2 0x100 EXP SWAP1 DIV PUSH20 0xFFFFFFFFFFFFFFFFFFFFFFFFFFFFFFFFFFFFFFFF AND PUSH20 0xFFFFFFFFFFFFFFFFFFFFFFFFFFFFFFFFFFFFFFFF AND EQ ISZERO PUSH2 0x691 JUMPI DUP3 PUSH1 0x1 PUSH1 0x0 PUSH2 0x100 EXP DUP2 SLOAD DUP2 PUSH20 0xFFFFFFFFFFFFFFFFFFFFFFFFFFFFFFFFFFFFFFFF MUL NOT AND SWAP1 DUP4 PUSH20 0xFFFFFFFFFFFFFFFFFFFFFFFFFFFFFFFFFFFFFFFF AND MUL OR SWAP1 SSTORE POP DUP2 PUSH1 0x1 PUSH1 0x15 PUSH2 0x100 EXP DUP2 SLOAD DUP2 PUSH1 0xFF MUL NOT AND SWAP1 DUP4 PUSH1 0x2 DUP2 GT ISZERO PUSH2 0x665 JUMPI PUSH2 0x664 PUSH2 0x8FA JUMP JUMPDEST JUMPDEST MUL OR SWAP1 SSTORE POP CALLVALUE PUSH1 0x3 DUP2 SWAP1 SSTORE POP PUSH1 0x40 MLOAD DUP1 PUSH1 0x60 ADD PUSH1 0x40 MSTORE DUP1 PUSH1 0x21 DUP2 MSTORE PUSH1 0x20 ADD PUSH2 0x9B1 PUSH1 0x21 SWAP2 CODECOPY SWAP1 POP PUSH2 0x6AD JUMP JUMPDEST PUSH1 0x40 MLOAD DUP1 PUSH1 0x60 ADD PUSH1 0x40 MSTORE DUP1 PUSH1 0x39 DUP2 MSTORE PUSH1 0x20 ADD PUSH2 0x9D2 PUSH1 0x39 SWAP2 CODECOPY SWAP1 POP JUMPDEST SWAP3 SWAP2 POP POP JUMP JUMPDEST PUSH1 0x0 DUP1 PUSH2 0x100 EXP DUP2 SLOAD SWAP1 PUSH20 0xFFFFFFFFFFFFFFFFFFFFFFFFFFFFFFFFFFFFFFFF MUL NOT AND SWAP1 SSTORE PUSH1 0x1 PUSH1 0x14 PUSH2 0x100 EXP DUP2 SLOAD SWAP1 PUSH1 0xFF MUL NOT AND SWAP1 SSTORE PUSH1 0x1 PUSH1 0x0 PUSH2 0x100 EXP DUP2 SLOAD SWAP1 PUSH20 0xFFFFFFFFFFFFFFFFFFFFFFFFFFFFFFFFFFFFFFFF MUL NOT AND SWAP1 SSTORE PUSH1 0x1 PUSH1 0x15 PUSH2 0x100 EXP DUP2 SLOAD SWAP1 PUSH1 0xFF MUL NOT AND SWAP1 SSTORE PUSH1 0x0 PUSH1 0x4 PUSH1 0x1 PUSH2 0x100 EXP DUP2 SLOAD DUP2 PUSH1 0xFF MUL NOT AND SWAP1 DUP4 ISZERO ISZERO MUL OR SWAP1 SSTORE POP JUMP JUMPDEST PUSH1 0x0 DUP2 CALLDATALOAD SWAP1 POP PUSH2 0x74C DUP2 PUSH2 0x968 JUMP JUMPDEST SWAP3 SWAP2 POP POP JUMP JUMPDEST PUSH1 0x0 DUP2 CALLDATALOAD SWAP1 POP PUSH2 0x761 DUP2 PUSH2 0x97F JUMP JUMPDEST SWAP3 SWAP2 POP POP JUMP JUMPDEST PUSH1 0x0 DUP1 PUSH1 0x40 DUP4 DUP6 SUB SLT ISZERO PUSH2 0x77E JUMPI PUSH2 0x77D PUSH2 0x929 JUMP JUMPDEST JUMPDEST PUSH1 0x0 PUSH2 0x78C DUP6 DUP3 DUP7 ADD PUSH2 0x73D JUMP JUMPDEST SWAP3 POP POP PUSH1 0x20 PUSH2 0x79D DUP6 DUP3 DUP7 ADD PUSH2 0x752 JUMP JUMPDEST SWAP2 POP POP SWAP3 POP SWAP3 SWAP1 POP JUMP JUMPDEST PUSH1 0x0 PUSH2 0x7B2 DUP3 PUSH2 0x86F JUMP JUMPDEST PUSH2 0x7BC DUP2 DUP6 PUSH2 0x87A JUMP JUMPDEST SWAP4 POP PUSH2 0x7CC DUP2 DUP6 PUSH1 0x20 DUP7 ADD PUSH2 0x8C7 JUMP JUMPDEST PUSH2 0x7D5 DUP2 PUSH2 0x92E JUMP JUMPDEST DUP5 ADD SWAP2 POP POP SWAP3 SWAP2 POP POP JUMP JUMPDEST PUSH1 0x0 PUSH2 0x7ED PUSH1 0x1A DUP4 PUSH2 0x87A JUMP JUMPDEST SWAP2 POP PUSH2 0x7F8 DUP3 PUSH2 0x93F JUMP JUMPDEST PUSH1 0x20 DUP3 ADD SWAP1 POP SWAP2 SWAP1 POP JUMP JUMPDEST PUSH2 0x80C DUP2 PUSH2 0x8BD JUMP JUMPDEST DUP3 MSTORE POP POP JUMP JUMPDEST PUSH1 0x0 PUSH1 0x20 DUP3 ADD SWAP1 POP DUP2 DUP2 SUB PUSH1 0x0 DUP4 ADD MSTORE PUSH2 0x82C DUP2 DUP5 PUSH2 0x7A7 JUMP JUMPDEST SWAP1 POP SWAP3 SWAP2 POP POP JUMP JUMPDEST PUSH1 0x0 PUSH1 0x20 DUP3 ADD SWAP1 POP DUP2 DUP2 SUB PUSH1 0x0 DUP4 ADD MSTORE PUSH2 0x84D DUP2 PUSH2 0x7E0 JUMP JUMPDEST SWAP1 POP SWAP2 SWAP1 POP JUMP JUMPDEST PUSH1 0x0 PUSH1 0x20 DUP3 ADD SWAP1 POP PUSH2 0x869 PUSH1 0x0 DUP4 ADD DUP5 PUSH2 0x803 JUMP JUMPDEST SWAP3 SWAP2 POP POP JUMP JUMPDEST PUSH1 0x0 DUP2 MLOAD SWAP1 POP SWAP2 SWAP1 POP JUMP JUMPDEST PUSH1 0x0 DUP3 DUP3 MSTORE PUSH1 0x20 DUP3 ADD SWAP1 POP SWAP3 SWAP2 POP POP JUMP JUMPDEST PUSH1 0x0 PUSH2 0x896 DUP3 PUSH2 0x89D JUMP JUMPDEST SWAP1 POP SWAP2 SWAP1 POP JUMP JUMPDEST PUSH1 0x0 PUSH20 0xFFFFFFFFFFFFFFFFFFFFFFFFFFFFFFFFFFFFFFFF DUP3 AND SWAP1 POP SWAP2 SWAP1 POP JUMP JUMPDEST PUSH1 0x0 DUP2 SWAP1 POP SWAP2 SWAP1 POP JUMP JUMPDEST PUSH1 0x0 JUMPDEST DUP4 DUP2 LT ISZERO PUSH2 0x8E5 JUMPI DUP1 DUP3 ADD MLOAD DUP2 DUP5 ADD MSTORE PUSH1 0x20 DUP2 ADD SWAP1 POP PUSH2 0x8CA JUMP JUMPDEST DUP4 DUP2 GT ISZERO PUSH2 0x8F4 JUMPI PUSH1 0x0 DUP5 DUP5 ADD MSTORE JUMPDEST POP POP POP POP JUMP JUMPDEST PUSH32 0x4E487B7100000000000000000000000000000000000000000000000000000000 PUSH1 0x0 MSTORE PUSH1 0x21 PUSH1 0x4 MSTORE PUSH1 0x24 PUSH1 0x0 REVERT JUMPDEST PUSH1 0x0 DUP1 REVERT JUMPDEST PUSH1 0x0 PUSH1 0x1F NOT PUSH1 0x1F DUP4 ADD AND SWAP1 POP SWAP2 SWAP1 POP JUMP JUMPDEST PUSH32 0x31204554482065786163746C7920697320726571756972656421000000000000 PUSH1 0x0 DUP3 ADD MSTORE POP JUMP JUMPDEST PUSH2 0x971 DUP2 PUSH2 0x88B JUMP JUMPDEST DUP2 EQ PUSH2 0x97C JUMPI PUSH1 0x0 DUP1 REVERT JUMPDEST POP JUMP JUMPDEST PUSH1 0x3 DUP2 LT PUSH2 0x98C JUMPI PUSH1 0x0 DUP1 REVERT JUMPDEST POP JUMP INVALID BALANCE KECCAK256 GASLIMIT SLOAD BASEFEE KECCAK256 PUSH5 0x65706F7369 PUSH21 0x65642C20796F7527726520706C6179657220312131 KECCAK256 GASLIMIT SLOAD BASEFEE KECCAK256 PUSH5 0x65706F7369 PUSH21 0x65642C20796F7527726520706C6179657220322142 PUSH16 0x746820706C6179657273206861766520 PUSH3 0x65656E KECCAK256 PUSH2 0x7373 PUSH10 0x676E65642C2077616974 KECCAK256 PUSH7 0x6F722067616D65 KECCAK256 PUSH21 0x6F2066696E69736821A264697066735822122067A5 0xF7 LOG3 CALLDATALOAD CODESIZE DUP11 0x25 SWAP3 0xC RETURNDATACOPY SDIV JUMPI PUSH30 0xE750913311061ED6B632E1327FBAC742ED5164736F6C6343000807003300 "
				},
				"gasEstimates": {
					"creation": {
						"codeDepositCost": "524800",
						"executionCost": "24873",
						"totalCost": "549673"
					},
					"external": {
						"balance()": "339",
						"decide()": "infinite",
						"play(address,uint8)": "infinite",
						"reset()": "121573"
					},
					"internal": {
						"payout()": "infinite"
					}
				},
				"methodIdentifiers": {
					"balance()": "b69ef8a8",
					"decide()": "305fcef3",
					"play(address,uint8)": "bca7437b",
					"reset()": "d826f88f"
				}
			},
			"storageLayout": {
				"storage": [
					{
						"astId": 11,
						"contract": "contracts/rps_v2.sol:RPS_v2",
						"label": "player1",
						"offset": 0,
						"slot": "0",
						"type": "t_address_payable"
					},
					{
						"astId": 13,
						"contract": "contracts/rps_v2.sol:RPS_v2",
						"label": "player2",
						"offset": 0,
						"slot": "1",
						"type": "t_address_payable"
					},
					{
						"astId": 16,
						"contract": "contracts/rps_v2.sol:RPS_v2",
						"label": "player1move",
						"offset": 20,
						"slot": "1",
						"type": "t_enum(Move)5"
					},
					{
						"astId": 19,
						"contract": "contracts/rps_v2.sol:RPS_v2",
						"label": "player2move",
						"offset": 21,
						"slot": "1",
						"type": "t_enum(Move)5"
					},
					{
						"astId": 21,
						"contract": "contracts/rps_v2.sol:RPS_v2",
						"label": "player1bet",
						"offset": 0,
						"slot": "2",
						"type": "t_uint256"
					},
					{
						"astId": 23,
						"contract": "contracts/rps_v2.sol:RPS_v2",
						"label": "player2bet",
						"offset": 0,
						"slot": "3",
						"type": "t_uint256"
					},
					{
						"astId": 26,
						"contract": "contracts/rps_v2.sol:RPS_v2",
						"label": "outcome",
						"offset": 0,
						"slot": "4",
						"type": "t_enum(GameState)9"
					},
					{
						"astId": 29,
						"contract": "contracts/rps_v2.sol:RPS_v2",
						"label": "winnerPaid",
						"offset": 1,
						"slot": "4",
						"type": "t_bool"
					}
				],
				"types": {
					"t_address_payable": {
						"encoding": "inplace",
						"label": "address payable",
						"numberOfBytes": "20"
					},
					"t_bool": {
						"encoding": "inplace",
						"label": "bool",
						"numberOfBytes": "1"
					},
					"t_enum(GameState)9": {
						"encoding": "inplace",
						"label": "enum RPS_v2.GameState",
						"numberOfBytes": "1"
					},
					"t_enum(Move)5": {
						"encoding": "inplace",
						"label": "enum RPS_v2.Move",
						"numberOfBytes": "1"
					},
					"t_uint256": {
						"encoding": "inplace",
						"label": "uint256",
						"numberOfBytes": "32"
					}
				}
			},
			"userdoc": {
				"kind": "user",
				"methods": {},
				"version": 1
			}
		}
	}
}