{
	"contracts/re-entrancy.sol": {
		"VictimContract": {
			"abi": [
				{
					"inputs": [],
					"name": "balance",
					"outputs": [
						{
							"internalType": "uint256",
							"name": "",
							"type": "uint256"
						}
					],
					"stateMutability": "view",
					"type": "function"
				},
				{
					"inputs": [
						{
							"internalType": "address",
							"name": "",
							"type": "address"
						}
					],
					"name": "balances",
					"outputs": [
						{
							"internalType": "uint256",
							"name": "",
							"type": "uint256"
						}
					],
					"stateMutability": "view",
					"type": "function"
				},
				{
					"inputs": [],
					"name": "deposit",
					"outputs": [],
					"stateMutability": "payable",
					"type": "function"
				},
				{
					"inputs": [],
					"name": "withdraw",
					"outputs": [],
					"stateMutability": "payable",
					"type": "function"
				}
			],
			"devdoc": {
				"kind": "dev",
				"methods": {},
				"version": 1
			},
			"evm": {
				"assembly": "    /* \"contracts/re-entrancy.sol\":74:907  contract VictimContract {\r... */\n  mstore(0x40, 0x80)\n  callvalue\n  dup1\n  iszero\n  tag_1\n  jumpi\n  0x00\n  dup1\n  revert\ntag_1:\n  pop\n  dataSize(sub_0)\n  dup1\n  dataOffset(sub_0)\n  0x00\n  codecopy\n  0x00\n  return\nstop\n\nsub_0: assembly {\n        /* \"contracts/re-entrancy.sol\":74:907  contract VictimContract {\r... */\n      mstore(0x40, 0x80)\n      jumpi(tag_1, lt(calldatasize, 0x04))\n      shr(0xe0, calldataload(0x00))\n      dup1\n      0x27e235e3\n      eq\n      tag_2\n      jumpi\n      dup1\n      0x3ccfd60b\n      eq\n      tag_3\n      jumpi\n      dup1\n      0xb69ef8a8\n      eq\n      tag_4\n      jumpi\n      dup1\n      0xd0e30db0\n      eq\n      tag_5\n      jumpi\n    tag_1:\n      0x00\n      dup1\n      revert\n        /* \"contracts/re-entrancy.sol\":107:148  mapping (address => uint) public balances */\n    tag_2:\n      callvalue\n      dup1\n      iszero\n      tag_6\n      jumpi\n      0x00\n      dup1\n      revert\n    tag_6:\n      pop\n      tag_7\n      0x04\n      dup1\n      calldatasize\n      sub\n      dup2\n      add\n      swap1\n      tag_8\n      swap2\n      swap1\n      tag_9\n      jump\t// in\n    tag_8:\n      tag_10\n      jump\t// in\n    tag_7:\n      mload(0x40)\n      tag_11\n      swap2\n      swap1\n      tag_12\n      jump\t// in\n    tag_11:\n      mload(0x40)\n      dup1\n      swap2\n      sub\n      swap1\n      return\n        /* \"contracts/re-entrancy.sol\":332:764  function withdraw() public payable {\r... */\n    tag_3:\n      tag_13\n      tag_14\n      jump\t// in\n    tag_13:\n      stop\n        /* \"contracts/re-entrancy.sol\":807:902  function balance() public view returns (uint256){\r... */\n    tag_4:\n      callvalue\n      dup1\n      iszero\n      tag_15\n      jumpi\n      0x00\n      dup1\n      revert\n    tag_15:\n      pop\n      tag_16\n      tag_17\n      jump\t// in\n    tag_16:\n      mload(0x40)\n      tag_18\n      swap2\n      swap1\n      tag_12\n      jump\t// in\n    tag_18:\n      mload(0x40)\n      dup1\n      swap2\n      sub\n      swap1\n      return\n        /* \"contracts/re-entrancy.sol\":157:324  function deposit() public payable {\r... */\n    tag_5:\n      tag_19\n      tag_20\n      jump\t// in\n    tag_19:\n      stop\n        /* \"contracts/re-entrancy.sol\":107:148  mapping (address => uint) public balances */\n    tag_10:\n      mstore(0x20, 0x00)\n      dup1\n      0x00\n      mstore\n      keccak256(0x00, 0x40)\n      0x00\n      swap2\n      pop\n      swap1\n      pop\n      sload\n      dup2\n      jump\t// out\n        /* \"contracts/re-entrancy.sol\":332:764  function withdraw() public payable {\r... */\n    tag_14:\n        /* \"contracts/re-entrancy.sol\":456:463  1 ether */\n      0x0de0b6b3a7640000\n        /* \"contracts/re-entrancy.sol\":432:440  balances */\n      0x00\n        /* \"contracts/re-entrancy.sol\":432:452  balances[msg.sender] */\n      dup1\n        /* \"contracts/re-entrancy.sol\":441:451  msg.sender */\n      caller\n        /* \"contracts/re-entrancy.sol\":432:452  balances[msg.sender] */\n      0xffffffffffffffffffffffffffffffffffffffff\n      and\n      0xffffffffffffffffffffffffffffffffffffffff\n      and\n      dup2\n      mstore\n      0x20\n      add\n      swap1\n      dup2\n      mstore\n      0x20\n      add\n      0x00\n      keccak256\n      sload\n        /* \"contracts/re-entrancy.sol\":432:463  balances[msg.sender] >= 1 ether */\n      lt\n      iszero\n        /* \"contracts/re-entrancy.sol\":410:503  require(\r... */\n      tag_22\n      jumpi\n      mload(0x40)\n      0x08c379a000000000000000000000000000000000000000000000000000000000\n      dup2\n      mstore\n      0x04\n      add\n      tag_23\n      swap1\n      tag_24\n      jump\t// in\n    tag_23:\n      mload(0x40)\n      dup1\n      swap2\n      sub\n      swap1\n      revert\n    tag_22:\n        /* \"contracts/re-entrancy.sol\":514:525  uint256 bal */\n      0x00\n        /* \"contracts/re-entrancy.sol\":528:536  balances */\n      dup1\n        /* \"contracts/re-entrancy.sol\":528:548  balances[msg.sender] */\n      0x00\n        /* \"contracts/re-entrancy.sol\":537:547  msg.sender */\n      caller\n        /* \"contracts/re-entrancy.sol\":528:548  balances[msg.sender] */\n      0xffffffffffffffffffffffffffffffffffffffff\n      and\n      0xffffffffffffffffffffffffffffffffffffffff\n      and\n      dup2\n      mstore\n      0x20\n      add\n      swap1\n      dup2\n      mstore\n      0x20\n      add\n      0x00\n      keccak256\n      sload\n        /* \"contracts/re-entrancy.sol\":514:548  uint256 bal = balances[msg.sender] */\n      swap1\n      pop\n        /* \"contracts/re-entrancy.sol\":596:605  bool sent */\n      0x00\n        /* \"contracts/re-entrancy.sol\":610:620  msg.sender */\n      caller\n        /* \"contracts/re-entrancy.sol\":610:625  msg.sender.call */\n      0xffffffffffffffffffffffffffffffffffffffff\n      and\n        /* \"contracts/re-entrancy.sol\":633:636  bal */\n      dup3\n        /* \"contracts/re-entrancy.sol\":610:641  msg.sender.call{value: bal}(\"\") */\n      mload(0x40)\n      tag_25\n      swap1\n      tag_26\n      jump\t// in\n    tag_25:\n      0x00\n      mload(0x40)\n      dup1\n      dup4\n      sub\n      dup2\n      dup6\n      dup8\n      gas\n      call\n      swap3\n      pop\n      pop\n      pop\n      returndatasize\n      dup1\n      0x00\n      dup2\n      eq\n      tag_29\n      jumpi\n      mload(0x40)\n      swap2\n      pop\n      and(add(returndatasize, 0x3f), not(0x1f))\n      dup3\n      add\n      0x40\n      mstore\n      returndatasize\n      dup3\n      mstore\n      returndatasize\n      0x00\n      0x20\n      dup5\n      add\n      returndatacopy\n      jump(tag_28)\n    tag_29:\n      0x60\n      swap2\n      pop\n    tag_28:\n      pop\n        /* \"contracts/re-entrancy.sol\":595:641  (bool sent,) = msg.sender.call{value: bal}(\"\") */\n      pop\n      swap1\n      pop\n        /* \"contracts/re-entrancy.sol\":660:664  sent */\n      dup1\n        /* \"contracts/re-entrancy.sol\":652:687  require(sent, \"Failed to withdraw\") */\n      tag_30\n      jumpi\n      mload(0x40)\n      0x08c379a000000000000000000000000000000000000000000000000000000000\n      dup2\n      mstore\n      0x04\n      add\n      tag_31\n      swap1\n      tag_32\n      jump\t// in\n    tag_31:\n      mload(0x40)\n      dup1\n      swap2\n      sub\n      swap1\n      revert\n    tag_30:\n        /* \"contracts/re-entrancy.sol\":749:750  0 */\n      0x00\n        /* \"contracts/re-entrancy.sol\":726:734  balances */\n      dup1\n        /* \"contracts/re-entrancy.sol\":726:746  balances[msg.sender] */\n      0x00\n        /* \"contracts/re-entrancy.sol\":735:745  msg.sender */\n      caller\n        /* \"contracts/re-entrancy.sol\":726:746  balances[msg.sender] */\n      0xffffffffffffffffffffffffffffffffffffffff\n      and\n      0xffffffffffffffffffffffffffffffffffffffff\n      and\n      dup2\n      mstore\n      0x20\n      add\n      swap1\n      dup2\n      mstore\n      0x20\n      add\n      0x00\n      keccak256\n        /* \"contracts/re-entrancy.sol\":726:750  balances[msg.sender] = 0 */\n      dup2\n      swap1\n      sstore\n      pop\n        /* \"contracts/re-entrancy.sol\":367:764  {\r... */\n      pop\n      pop\n        /* \"contracts/re-entrancy.sol\":332:764  function withdraw() public payable {\r... */\n      jump\t// out\n        /* \"contracts/re-entrancy.sol\":807:902  function balance() public view returns (uint256){\r... */\n    tag_17:\n        /* \"contracts/re-entrancy.sol\":847:854  uint256 */\n      0x00\n        /* \"contracts/re-entrancy.sol\":873:894  address(this).balance */\n      selfbalance\n        /* \"contracts/re-entrancy.sol\":866:894  return address(this).balance */\n      swap1\n      pop\n        /* \"contracts/re-entrancy.sol\":807:902  function balance() public view returns (uint256){\r... */\n      swap1\n      jump\t// out\n        /* \"contracts/re-entrancy.sol\":157:324  function deposit() public payable {\r... */\n    tag_20:\n        /* \"contracts/re-entrancy.sol\":223:230  1 ether */\n      0x0de0b6b3a7640000\n        /* \"contracts/re-entrancy.sol\":210:219  msg.value */\n      callvalue\n        /* \"contracts/re-entrancy.sol\":210:230  msg.value >= 1 ether */\n      lt\n      iszero\n        /* \"contracts/re-entrancy.sol\":202:272  require(msg.value >= 1 ether, \"Desposit must be no less than 1 Ether\") */\n      tag_35\n      jumpi\n      mload(0x40)\n      0x08c379a000000000000000000000000000000000000000000000000000000000\n      dup2\n      mstore\n      0x04\n      add\n      tag_36\n      swap1\n      tag_37\n      jump\t// in\n    tag_36:\n      mload(0x40)\n      dup1\n      swap2\n      sub\n      swap1\n      revert\n    tag_35:\n        /* \"contracts/re-entrancy.sol\":307:316  msg.value */\n      callvalue\n        /* \"contracts/re-entrancy.sol\":283:291  balances */\n      0x00\n        /* \"contracts/re-entrancy.sol\":283:303  balances[msg.sender] */\n      dup1\n        /* \"contracts/re-entrancy.sol\":292:302  msg.sender */\n      caller\n        /* \"contracts/re-entrancy.sol\":283:303  balances[msg.sender] */\n      0xffffffffffffffffffffffffffffffffffffffff\n      and\n      0xffffffffffffffffffffffffffffffffffffffff\n      and\n      dup2\n      mstore\n      0x20\n      add\n      swap1\n      dup2\n      mstore\n      0x20\n      add\n      0x00\n      keccak256\n      0x00\n        /* \"contracts/re-entrancy.sol\":283:316  balances[msg.sender] += msg.value */\n      dup3\n      dup3\n      sload\n      tag_38\n      swap2\n      swap1\n      tag_39\n      jump\t// in\n    tag_38:\n      swap3\n      pop\n      pop\n      dup2\n      swap1\n      sstore\n      pop\n        /* \"contracts/re-entrancy.sol\":157:324  function deposit() public payable {\r... */\n      jump\t// out\n        /* \"#utility.yul\":7:146   */\n    tag_41:\n        /* \"#utility.yul\":53:58   */\n      0x00\n        /* \"#utility.yul\":91:97   */\n      dup2\n        /* \"#utility.yul\":78:98   */\n      calldataload\n        /* \"#utility.yul\":69:98   */\n      swap1\n      pop\n        /* \"#utility.yul\":107:140   */\n      tag_43\n        /* \"#utility.yul\":134:139   */\n      dup2\n        /* \"#utility.yul\":107:140   */\n      tag_44\n      jump\t// in\n    tag_43:\n        /* \"#utility.yul\":7:146   */\n      swap3\n      swap2\n      pop\n      pop\n      jump\t// out\n        /* \"#utility.yul\":152:481   */\n    tag_9:\n        /* \"#utility.yul\":211:217   */\n      0x00\n        /* \"#utility.yul\":260:262   */\n      0x20\n        /* \"#utility.yul\":248:257   */\n      dup3\n        /* \"#utility.yul\":239:246   */\n      dup5\n        /* \"#utility.yul\":235:258   */\n      sub\n        /* \"#utility.yul\":231:263   */\n      slt\n        /* \"#utility.yul\":228:347   */\n      iszero\n      tag_46\n      jumpi\n        /* \"#utility.yul\":266:345   */\n      tag_47\n      tag_48\n      jump\t// in\n    tag_47:\n        /* \"#utility.yul\":228:347   */\n    tag_46:\n        /* \"#utility.yul\":386:387   */\n      0x00\n        /* \"#utility.yul\":411:464   */\n      tag_49\n        /* \"#utility.yul\":456:463   */\n      dup5\n        /* \"#utility.yul\":447:453   */\n      dup3\n        /* \"#utility.yul\":436:445   */\n      dup6\n        /* \"#utility.yul\":432:454   */\n      add\n        /* \"#utility.yul\":411:464   */\n      tag_41\n      jump\t// in\n    tag_49:\n        /* \"#utility.yul\":401:464   */\n      swap2\n      pop\n        /* \"#utility.yul\":357:474   */\n      pop\n        /* \"#utility.yul\":152:481   */\n      swap3\n      swap2\n      pop\n      pop\n      jump\t// out\n        /* \"#utility.yul\":487:853   */\n    tag_50:\n        /* \"#utility.yul\":629:632   */\n      0x00\n        /* \"#utility.yul\":650:717   */\n      tag_52\n        /* \"#utility.yul\":714:716   */\n      0x12\n        /* \"#utility.yul\":709:712   */\n      dup4\n        /* \"#utility.yul\":650:717   */\n      tag_53\n      jump\t// in\n    tag_52:\n        /* \"#utility.yul\":643:717   */\n      swap2\n      pop\n        /* \"#utility.yul\":726:819   */\n      tag_54\n        /* \"#utility.yul\":815:818   */\n      dup3\n        /* \"#utility.yul\":726:819   */\n      tag_55\n      jump\t// in\n    tag_54:\n        /* \"#utility.yul\":844:846   */\n      0x20\n        /* \"#utility.yul\":839:842   */\n      dup3\n        /* \"#utility.yul\":835:847   */\n      add\n        /* \"#utility.yul\":828:847   */\n      swap1\n      pop\n        /* \"#utility.yul\":487:853   */\n      swap2\n      swap1\n      pop\n      jump\t// out\n        /* \"#utility.yul\":859:1225   */\n    tag_56:\n        /* \"#utility.yul\":1001:1004   */\n      0x00\n        /* \"#utility.yul\":1022:1089   */\n      tag_58\n        /* \"#utility.yul\":1086:1088   */\n      0x24\n        /* \"#utility.yul\":1081:1084   */\n      dup4\n        /* \"#utility.yul\":1022:1089   */\n      tag_53\n      jump\t// in\n    tag_58:\n        /* \"#utility.yul\":1015:1089   */\n      swap2\n      pop\n        /* \"#utility.yul\":1098:1191   */\n      tag_59\n        /* \"#utility.yul\":1187:1190   */\n      dup3\n        /* \"#utility.yul\":1098:1191   */\n      tag_60\n      jump\t// in\n    tag_59:\n        /* \"#utility.yul\":1216:1218   */\n      0x40\n        /* \"#utility.yul\":1211:1214   */\n      dup3\n        /* \"#utility.yul\":1207:1219   */\n      add\n        /* \"#utility.yul\":1200:1219   */\n      swap1\n      pop\n        /* \"#utility.yul\":859:1225   */\n      swap2\n      swap1\n      pop\n      jump\t// out\n        /* \"#utility.yul\":1231:1597   */\n    tag_61:\n        /* \"#utility.yul\":1373:1376   */\n      0x00\n        /* \"#utility.yul\":1394:1461   */\n      tag_63\n        /* \"#utility.yul\":1458:1460   */\n      0x25\n        /* \"#utility.yul\":1453:1456   */\n      dup4\n        /* \"#utility.yul\":1394:1461   */\n      tag_53\n      jump\t// in\n    tag_63:\n        /* \"#utility.yul\":1387:1461   */\n      swap2\n      pop\n        /* \"#utility.yul\":1470:1563   */\n      tag_64\n        /* \"#utility.yul\":1559:1562   */\n      dup3\n        /* \"#utility.yul\":1470:1563   */\n      tag_65\n      jump\t// in\n    tag_64:\n        /* \"#utility.yul\":1588:1590   */\n      0x40\n        /* \"#utility.yul\":1583:1586   */\n      dup3\n        /* \"#utility.yul\":1579:1591   */\n      add\n        /* \"#utility.yul\":1572:1591   */\n      swap1\n      pop\n        /* \"#utility.yul\":1231:1597   */\n      swap2\n      swap1\n      pop\n      jump\t// out\n        /* \"#utility.yul\":1603:2001   */\n    tag_66:\n        /* \"#utility.yul\":1762:1765   */\n      0x00\n        /* \"#utility.yul\":1783:1866   */\n      tag_68\n        /* \"#utility.yul\":1864:1865   */\n      0x00\n        /* \"#utility.yul\":1859:1862   */\n      dup4\n        /* \"#utility.yul\":1783:1866   */\n      tag_69\n      jump\t// in\n    tag_68:\n        /* \"#utility.yul\":1776:1866   */\n      swap2\n      pop\n        /* \"#utility.yul\":1875:1968   */\n      tag_70\n        /* \"#utility.yul\":1964:1967   */\n      dup3\n        /* \"#utility.yul\":1875:1968   */\n      tag_71\n      jump\t// in\n    tag_70:\n        /* \"#utility.yul\":1993:1994   */\n      0x00\n        /* \"#utility.yul\":1988:1991   */\n      dup3\n        /* \"#utility.yul\":1984:1995   */\n      add\n        /* \"#utility.yul\":1977:1995   */\n      swap1\n      pop\n        /* \"#utility.yul\":1603:2001   */\n      swap2\n      swap1\n      pop\n      jump\t// out\n        /* \"#utility.yul\":2007:2125   */\n    tag_72:\n        /* \"#utility.yul\":2094:2118   */\n      tag_74\n        /* \"#utility.yul\":2112:2117   */\n      dup2\n        /* \"#utility.yul\":2094:2118   */\n      tag_75\n      jump\t// in\n    tag_74:\n        /* \"#utility.yul\":2089:2092   */\n      dup3\n        /* \"#utility.yul\":2082:2119   */\n      mstore\n        /* \"#utility.yul\":2007:2125   */\n      pop\n      pop\n      jump\t// out\n        /* \"#utility.yul\":2131:2510   */\n    tag_26:\n        /* \"#utility.yul\":2315:2318   */\n      0x00\n        /* \"#utility.yul\":2337:2484   */\n      tag_77\n        /* \"#utility.yul\":2480:2483   */\n      dup3\n        /* \"#utility.yul\":2337:2484   */\n      tag_66\n      jump\t// in\n    tag_77:\n        /* \"#utility.yul\":2330:2484   */\n      swap2\n      pop\n        /* \"#utility.yul\":2501:2504   */\n      dup2\n        /* \"#utility.yul\":2494:2504   */\n      swap1\n      pop\n        /* \"#utility.yul\":2131:2510   */\n      swap2\n      swap1\n      pop\n      jump\t// out\n        /* \"#utility.yul\":2516:2935   */\n    tag_32:\n        /* \"#utility.yul\":2682:2686   */\n      0x00\n        /* \"#utility.yul\":2720:2722   */\n      0x20\n        /* \"#utility.yul\":2709:2718   */\n      dup3\n        /* \"#utility.yul\":2705:2723   */\n      add\n        /* \"#utility.yul\":2697:2723   */\n      swap1\n      pop\n        /* \"#utility.yul\":2769:2778   */\n      dup2\n        /* \"#utility.yul\":2763:2767   */\n      dup2\n        /* \"#utility.yul\":2759:2779   */\n      sub\n        /* \"#utility.yul\":2755:2756   */\n      0x00\n        /* \"#utility.yul\":2744:2753   */\n      dup4\n        /* \"#utility.yul\":2740:2757   */\n      add\n        /* \"#utility.yul\":2733:2780   */\n      mstore\n        /* \"#utility.yul\":2797:2928   */\n      tag_79\n        /* \"#utility.yul\":2923:2927   */\n      dup2\n        /* \"#utility.yul\":2797:2928   */\n      tag_50\n      jump\t// in\n    tag_79:\n        /* \"#utility.yul\":2789:2928   */\n      swap1\n      pop\n        /* \"#utility.yul\":2516:2935   */\n      swap2\n      swap1\n      pop\n      jump\t// out\n        /* \"#utility.yul\":2941:3360   */\n    tag_24:\n        /* \"#utility.yul\":3107:3111   */\n      0x00\n        /* \"#utility.yul\":3145:3147   */\n      0x20\n        /* \"#utility.yul\":3134:3143   */\n      dup3\n        /* \"#utility.yul\":3130:3148   */\n      add\n        /* \"#utility.yul\":3122:3148   */\n      swap1\n      pop\n        /* \"#utility.yul\":3194:3203   */\n      dup2\n        /* \"#utility.yul\":3188:3192   */\n      dup2\n        /* \"#utility.yul\":3184:3204   */\n      sub\n        /* \"#utility.yul\":3180:3181   */\n      0x00\n        /* \"#utility.yul\":3169:3178   */\n      dup4\n        /* \"#utility.yul\":3165:3182   */\n      add\n        /* \"#utility.yul\":3158:3205   */\n      mstore\n        /* \"#utility.yul\":3222:3353   */\n      tag_81\n        /* \"#utility.yul\":3348:3352   */\n      dup2\n        /* \"#utility.yul\":3222:3353   */\n      tag_56\n      jump\t// in\n    tag_81:\n        /* \"#utility.yul\":3214:3353   */\n      swap1\n      pop\n        /* \"#utility.yul\":2941:3360   */\n      swap2\n      swap1\n      pop\n      jump\t// out\n        /* \"#utility.yul\":3366:3785   */\n    tag_37:\n        /* \"#utility.yul\":3532:3536   */\n      0x00\n        /* \"#utility.yul\":3570:3572   */\n      0x20\n        /* \"#utility.yul\":3559:3568   */\n      dup3\n        /* \"#utility.yul\":3555:3573   */\n      add\n        /* \"#utility.yul\":3547:3573   */\n      swap1\n      pop\n        /* \"#utility.yul\":3619:3628   */\n      dup2\n        /* \"#utility.yul\":3613:3617   */\n      dup2\n        /* \"#utility.yul\":3609:3629   */\n      sub\n        /* \"#utility.yul\":3605:3606   */\n      0x00\n        /* \"#utility.yul\":3594:3603   */\n      dup4\n        /* \"#utility.yul\":3590:3607   */\n      add\n        /* \"#utility.yul\":3583:3630   */\n      mstore\n        /* \"#utility.yul\":3647:3778   */\n      tag_83\n        /* \"#utility.yul\":3773:3777   */\n      dup2\n        /* \"#utility.yul\":3647:3778   */\n      tag_61\n      jump\t// in\n    tag_83:\n        /* \"#utility.yul\":3639:3778   */\n      swap1\n      pop\n        /* \"#utility.yul\":3366:3785   */\n      swap2\n      swap1\n      pop\n      jump\t// out\n        /* \"#utility.yul\":3791:4013   */\n    tag_12:\n        /* \"#utility.yul\":3884:3888   */\n      0x00\n        /* \"#utility.yul\":3922:3924   */\n      0x20\n        /* \"#utility.yul\":3911:3920   */\n      dup3\n        /* \"#utility.yul\":3907:3925   */\n      add\n        /* \"#utility.yul\":3899:3925   */\n      swap1\n      pop\n        /* \"#utility.yul\":3935:4006   */\n      tag_85\n        /* \"#utility.yul\":4003:4004   */\n      0x00\n        /* \"#utility.yul\":3992:4001   */\n      dup4\n        /* \"#utility.yul\":3988:4005   */\n      add\n        /* \"#utility.yul\":3979:3985   */\n      dup5\n        /* \"#utility.yul\":3935:4006   */\n      tag_72\n      jump\t// in\n    tag_85:\n        /* \"#utility.yul\":3791:4013   */\n      swap3\n      swap2\n      pop\n      pop\n      jump\t// out\n        /* \"#utility.yul\":4100:4247   */\n    tag_69:\n        /* \"#utility.yul\":4201:4212   */\n      0x00\n        /* \"#utility.yul\":4238:4241   */\n      dup2\n        /* \"#utility.yul\":4223:4241   */\n      swap1\n      pop\n        /* \"#utility.yul\":4100:4247   */\n      swap3\n      swap2\n      pop\n      pop\n      jump\t// out\n        /* \"#utility.yul\":4253:4422   */\n    tag_53:\n        /* \"#utility.yul\":4337:4348   */\n      0x00\n        /* \"#utility.yul\":4371:4377   */\n      dup3\n        /* \"#utility.yul\":4366:4369   */\n      dup3\n        /* \"#utility.yul\":4359:4378   */\n      mstore\n        /* \"#utility.yul\":4411:4415   */\n      0x20\n        /* \"#utility.yul\":4406:4409   */\n      dup3\n        /* \"#utility.yul\":4402:4416   */\n      add\n        /* \"#utility.yul\":4387:4416   */\n      swap1\n      pop\n        /* \"#utility.yul\":4253:4422   */\n      swap3\n      swap2\n      pop\n      pop\n      jump\t// out\n        /* \"#utility.yul\":4428:4733   */\n    tag_39:\n        /* \"#utility.yul\":4468:4471   */\n      0x00\n        /* \"#utility.yul\":4487:4507   */\n      tag_91\n        /* \"#utility.yul\":4505:4506   */\n      dup3\n        /* \"#utility.yul\":4487:4507   */\n      tag_75\n      jump\t// in\n    tag_91:\n        /* \"#utility.yul\":4482:4507   */\n      swap2\n      pop\n        /* \"#utility.yul\":4521:4541   */\n      tag_92\n        /* \"#utility.yul\":4539:4540   */\n      dup4\n        /* \"#utility.yul\":4521:4541   */\n      tag_75\n      jump\t// in\n    tag_92:\n        /* \"#utility.yul\":4516:4541   */\n      swap3\n      pop\n        /* \"#utility.yul\":4675:4676   */\n      dup3\n        /* \"#utility.yul\":4607:4673   */\n      0xffffffffffffffffffffffffffffffffffffffffffffffffffffffffffffffff\n        /* \"#utility.yul\":4603:4677   */\n      sub\n        /* \"#utility.yul\":4600:4601   */\n      dup3\n        /* \"#utility.yul\":4597:4678   */\n      gt\n        /* \"#utility.yul\":4594:4701   */\n      iszero\n      tag_93\n      jumpi\n        /* \"#utility.yul\":4681:4699   */\n      tag_94\n      tag_95\n      jump\t// in\n    tag_94:\n        /* \"#utility.yul\":4594:4701   */\n    tag_93:\n        /* \"#utility.yul\":4725:4726   */\n      dup3\n        /* \"#utility.yul\":4722:4723   */\n      dup3\n        /* \"#utility.yul\":4718:4727   */\n      add\n        /* \"#utility.yul\":4711:4727   */\n      swap1\n      pop\n        /* \"#utility.yul\":4428:4733   */\n      swap3\n      swap2\n      pop\n      pop\n      jump\t// out\n        /* \"#utility.yul\":4739:4835   */\n    tag_96:\n        /* \"#utility.yul\":4776:4783   */\n      0x00\n        /* \"#utility.yul\":4805:4829   */\n      tag_98\n        /* \"#utility.yul\":4823:4828   */\n      dup3\n        /* \"#utility.yul\":4805:4829   */\n      tag_99\n      jump\t// in\n    tag_98:\n        /* \"#utility.yul\":4794:4829   */\n      swap1\n      pop\n        /* \"#utility.yul\":4739:4835   */\n      swap2\n      swap1\n      pop\n      jump\t// out\n        /* \"#utility.yul\":4841:4967   */\n    tag_99:\n        /* \"#utility.yul\":4878:4885   */\n      0x00\n        /* \"#utility.yul\":4918:4960   */\n      0xffffffffffffffffffffffffffffffffffffffff\n        /* \"#utility.yul\":4911:4916   */\n      dup3\n        /* \"#utility.yul\":4907:4961   */\n      and\n        /* \"#utility.yul\":4896:4961   */\n      swap1\n      pop\n        /* \"#utility.yul\":4841:4967   */\n      swap2\n      swap1\n      pop\n      jump\t// out\n        /* \"#utility.yul\":4973:5050   */\n    tag_75:\n        /* \"#utility.yul\":5010:5017   */\n      0x00\n        /* \"#utility.yul\":5039:5044   */\n      dup2\n        /* \"#utility.yul\":5028:5044   */\n      swap1\n      pop\n        /* \"#utility.yul\":4973:5050   */\n      swap2\n      swap1\n      pop\n      jump\t// out\n        /* \"#utility.yul\":5056:5236   */\n    tag_95:\n        /* \"#utility.yul\":5104:5181   */\n      0x4e487b7100000000000000000000000000000000000000000000000000000000\n        /* \"#utility.yul\":5101:5102   */\n      0x00\n        /* \"#utility.yul\":5094:5182   */\n      mstore\n        /* \"#utility.yul\":5201:5205   */\n      0x11\n        /* \"#utility.yul\":5198:5199   */\n      0x04\n        /* \"#utility.yul\":5191:5206   */\n      mstore\n        /* \"#utility.yul\":5225:5229   */\n      0x24\n        /* \"#utility.yul\":5222:5223   */\n      0x00\n        /* \"#utility.yul\":5215:5230   */\n      revert\n        /* \"#utility.yul\":5365:5482   */\n    tag_48:\n        /* \"#utility.yul\":5474:5475   */\n      0x00\n        /* \"#utility.yul\":5471:5472   */\n      dup1\n        /* \"#utility.yul\":5464:5476   */\n      revert\n        /* \"#utility.yul\":5488:5656   */\n    tag_55:\n        /* \"#utility.yul\":5628:5648   */\n      0x4661696c656420746f2077697468647261770000000000000000000000000000\n        /* \"#utility.yul\":5624:5625   */\n      0x00\n        /* \"#utility.yul\":5616:5622   */\n      dup3\n        /* \"#utility.yul\":5612:5626   */\n      add\n        /* \"#utility.yul\":5605:5649   */\n      mstore\n        /* \"#utility.yul\":5488:5656   */\n      pop\n      jump\t// out\n        /* \"#utility.yul\":5662:5885   */\n    tag_60:\n        /* \"#utility.yul\":5802:5836   */\n      0x42616c616e6365206e6565647320746f206265206174206c6561737420312045\n        /* \"#utility.yul\":5798:5799   */\n      0x00\n        /* \"#utility.yul\":5790:5796   */\n      dup3\n        /* \"#utility.yul\":5786:5800   */\n      add\n        /* \"#utility.yul\":5779:5837   */\n      mstore\n        /* \"#utility.yul\":5871:5877   */\n      0x7468657200000000000000000000000000000000000000000000000000000000\n        /* \"#utility.yul\":5866:5868   */\n      0x20\n        /* \"#utility.yul\":5858:5864   */\n      dup3\n        /* \"#utility.yul\":5854:5869   */\n      add\n        /* \"#utility.yul\":5847:5878   */\n      mstore\n        /* \"#utility.yul\":5662:5885   */\n      pop\n      jump\t// out\n        /* \"#utility.yul\":5891:6115   */\n    tag_65:\n        /* \"#utility.yul\":6031:6065   */\n      0x446573706f736974206d757374206265206e6f206c657373207468616e203120\n        /* \"#utility.yul\":6027:6028   */\n      0x00\n        /* \"#utility.yul\":6019:6025   */\n      dup3\n        /* \"#utility.yul\":6015:6029   */\n      add\n        /* \"#utility.yul\":6008:6066   */\n      mstore\n        /* \"#utility.yul\":6100:6107   */\n      0x4574686572000000000000000000000000000000000000000000000000000000\n        /* \"#utility.yul\":6095:6097   */\n      0x20\n        /* \"#utility.yul\":6087:6093   */\n      dup3\n        /* \"#utility.yul\":6083:6098   */\n      add\n        /* \"#utility.yul\":6076:6108   */\n      mstore\n        /* \"#utility.yul\":5891:6115   */\n      pop\n      jump\t// out\n        /* \"#utility.yul\":6121:6235   */\n    tag_71:\n      pop\n      jump\t// out\n        /* \"#utility.yul\":6241:6363   */\n    tag_44:\n        /* \"#utility.yul\":6314:6338   */\n      tag_111\n        /* \"#utility.yul\":6332:6337   */\n      dup2\n        /* \"#utility.yul\":6314:6338   */\n      tag_96\n      jump\t// in\n    tag_111:\n        /* \"#utility.yul\":6307:6312   */\n      dup2\n        /* \"#utility.yul\":6304:6339   */\n      eq\n        /* \"#utility.yul\":6294:6357   */\n      tag_112\n      jumpi\n        /* \"#utility.yul\":6353:6354   */\n      0x00\n        /* \"#utility.yul\":6350:6351   */\n      dup1\n        /* \"#utility.yul\":6343:6355   */\n      revert\n        /* \"#utility.yul\":6294:6357   */\n    tag_112:\n        /* \"#utility.yul\":6241:6363   */\n      pop\n      jump\t// out\n\n    auxdata: 0xa26469706673582212206592868ce27dce0f00434fd0067ed4c9809002777f7d330ac8bb9513503594e864736f6c63430008070033\n}\n",
				"bytecode": {
					"linkReferences": {},
					"object": "608060405234801561001057600080fd5b506106a8806100206000396000f3fe60806040526004361061003f5760003560e01c806327e235e3146100445780633ccfd60b14610081578063b69ef8a81461008b578063d0e30db0146100b6575b600080fd5b34801561005057600080fd5b5061006b60048036038101906100669190610357565b6100c0565b6040516100789190610494565b60405180910390f35b6100896100d8565b005b34801561009757600080fd5b506100a0610298565b6040516100ad9190610494565b60405180910390f35b6100be6102a0565b005b60006020528060005260406000206000915090505481565b670de0b6b3a76400006000803373ffffffffffffffffffffffffffffffffffffffff1673ffffffffffffffffffffffffffffffffffffffff168152602001908152602001600020541015610161576040517f08c379a000000000000000000000000000000000000000000000000000000000815260040161015890610454565b60405180910390fd5b60008060003373ffffffffffffffffffffffffffffffffffffffff1673ffffffffffffffffffffffffffffffffffffffff16815260200190815260200160002054905060003373ffffffffffffffffffffffffffffffffffffffff16826040516101ca9061041f565b60006040518083038185875af1925050503d8060008114610207576040519150601f19603f3d011682016040523d82523d6000602084013e61020c565b606091505b5050905080610250576040517f08c379a000000000000000000000000000000000000000000000000000000000815260040161024790610434565b60405180910390fd5b60008060003373ffffffffffffffffffffffffffffffffffffffff1673ffffffffffffffffffffffffffffffffffffffff168152602001908152602001600020819055505050565b600047905090565b670de0b6b3a76400003410156102eb576040517f08c379a00000000000000000000000000000000000000000000000000000000081526004016102e290610474565b60405180910390fd5b346000803373ffffffffffffffffffffffffffffffffffffffff1673ffffffffffffffffffffffffffffffffffffffff168152602001908152602001600020600082825461033991906104cb565b92505081905550565b6000813590506103518161065b565b92915050565b60006020828403121561036d5761036c61058c565b5b600061037b84828501610342565b91505092915050565b60006103916012836104ba565b915061039c82610591565b602082019050919050565b60006103b46024836104ba565b91506103bf826105ba565b604082019050919050565b60006103d76025836104ba565b91506103e282610609565b604082019050919050565b60006103fa6000836104af565b915061040582610658565b600082019050919050565b61041981610553565b82525050565b600061042a826103ed565b9150819050919050565b6000602082019050818103600083015261044d81610384565b9050919050565b6000602082019050818103600083015261046d816103a7565b9050919050565b6000602082019050818103600083015261048d816103ca565b9050919050565b60006020820190506104a96000830184610410565b92915050565b600081905092915050565b600082825260208201905092915050565b60006104d682610553565b91506104e183610553565b9250827fffffffffffffffffffffffffffffffffffffffffffffffffffffffffffffffff038211156105165761051561055d565b5b828201905092915050565b600061052c82610533565b9050919050565b600073ffffffffffffffffffffffffffffffffffffffff82169050919050565b6000819050919050565b7f4e487b7100000000000000000000000000000000000000000000000000000000600052601160045260246000fd5b600080fd5b7f4661696c656420746f2077697468647261770000000000000000000000000000600082015250565b7f42616c616e6365206e6565647320746f206265206174206c656173742031204560008201527f7468657200000000000000000000000000000000000000000000000000000000602082015250565b7f446573706f736974206d757374206265206e6f206c657373207468616e20312060008201527f4574686572000000000000000000000000000000000000000000000000000000602082015250565b50565b61066481610521565b811461066f57600080fd5b5056fea26469706673582212206592868ce27dce0f00434fd0067ed4c9809002777f7d330ac8bb9513503594e864736f6c63430008070033",
					"opcodes": "PUSH1 0x80 PUSH1 0x40 MSTORE CALLVALUE DUP1 ISZERO PUSH2 0x10 JUMPI PUSH1 0x0 DUP1 REVERT JUMPDEST POP PUSH2 0x6A8 DUP1 PUSH2 0x20 PUSH1 0x0 CODECOPY PUSH1 0x0 RETURN INVALID PUSH1 0x80 PUSH1 0x40 MSTORE PUSH1 0x4 CALLDATASIZE LT PUSH2 0x3F JUMPI PUSH1 0x0 CALLDATALOAD PUSH1 0xE0 SHR DUP1 PUSH4 0x27E235E3 EQ PUSH2 0x44 JUMPI DUP1 PUSH4 0x3CCFD60B EQ PUSH2 0x81 JUMPI DUP1 PUSH4 0xB69EF8A8 EQ PUSH2 0x8B JUMPI DUP1 PUSH4 0xD0E30DB0 EQ PUSH2 0xB6 JUMPI JUMPDEST PUSH1 0x0 DUP1 REVERT JUMPDEST CALLVALUE DUP1 ISZERO PUSH2 0x50 JUMPI PUSH1 0x0 DUP1 REVERT JUMPDEST POP PUSH2 0x6B PUSH1 0x4 DUP1 CALLDATASIZE SUB DUP2 ADD SWAP1 PUSH2 0x66 SWAP2 SWAP1 PUSH2 0x357 JUMP JUMPDEST PUSH2 0xC0 JUMP JUMPDEST PUSH1 0x40 MLOAD PUSH2 0x78 SWAP2 SWAP1 PUSH2 0x494 JUMP JUMPDEST PUSH1 0x40 MLOAD DUP1 SWAP2 SUB SWAP1 RETURN JUMPDEST PUSH2 0x89 PUSH2 0xD8 JUMP JUMPDEST STOP JUMPDEST CALLVALUE DUP1 ISZERO PUSH2 0x97 JUMPI PUSH1 0x0 DUP1 REVERT JUMPDEST POP PUSH2 0xA0 PUSH2 0x298 JUMP JUMPDEST PUSH1 0x40 MLOAD PUSH2 0xAD SWAP2 SWAP1 PUSH2 0x494 JUMP JUMPDEST PUSH1 0x40 MLOAD DUP1 SWAP2 SUB SWAP1 RETURN JUMPDEST PUSH2 0xBE PUSH2 0x2A0 JUMP JUMPDEST STOP JUMPDEST PUSH1 0x0 PUSH1 0x20 MSTORE DUP1 PUSH1 0x0 MSTORE PUSH1 0x40 PUSH1 0x0 KECCAK256 PUSH1 0x0 SWAP2 POP SWAP1 POP SLOAD DUP2 JUMP JUMPDEST PUSH8 0xDE0B6B3A7640000 PUSH1 0x0 DUP1 CALLER PUSH20 0xFFFFFFFFFFFFFFFFFFFFFFFFFFFFFFFFFFFFFFFF AND PUSH20 0xFFFFFFFFFFFFFFFFFFFFFFFFFFFFFFFFFFFFFFFF AND DUP2 MSTORE PUSH1 0x20 ADD SWAP1 DUP2 MSTORE PUSH1 0x20 ADD PUSH1 0x0 KECCAK256 SLOAD LT ISZERO PUSH2 0x161 JUMPI PUSH1 0x40 MLOAD PUSH32 0x8C379A000000000000000000000000000000000000000000000000000000000 DUP2 MSTORE PUSH1 0x4 ADD PUSH2 0x158 SWAP1 PUSH2 0x454 JUMP JUMPDEST PUSH1 0x40 MLOAD DUP1 SWAP2 SUB SWAP1 REVERT JUMPDEST PUSH1 0x0 DUP1 PUSH1 0x0 CALLER PUSH20 0xFFFFFFFFFFFFFFFFFFFFFFFFFFFFFFFFFFFFFFFF AND PUSH20 0xFFFFFFFFFFFFFFFFFFFFFFFFFFFFFFFFFFFFFFFF AND DUP2 MSTORE PUSH1 0x20 ADD SWAP1 DUP2 MSTORE PUSH1 0x20 ADD PUSH1 0x0 KECCAK256 SLOAD SWAP1 POP PUSH1 0x0 CALLER PUSH20 0xFFFFFFFFFFFFFFFFFFFFFFFFFFFFFFFFFFFFFFFF AND DUP3 PUSH1 0x40 MLOAD PUSH2 0x1CA SWAP1 PUSH2 0x41F JUMP JUMPDEST PUSH1 0x0 PUSH1 0x40 MLOAD DUP1 DUP4 SUB DUP2 DUP6 DUP8 GAS CALL SWAP3 POP POP POP RETURNDATASIZE DUP1 PUSH1 0x0 DUP2 EQ PUSH2 0x207 JUMPI PUSH1 0x40 MLOAD SWAP2 POP PUSH1 0x1F NOT PUSH1 0x3F RETURNDATASIZE ADD AND DUP3 ADD PUSH1 0x40 MSTORE RETURNDATASIZE DUP3 MSTORE RETURNDATASIZE PUSH1 0x0 PUSH1 0x20 DUP5 ADD RETURNDATACOPY PUSH2 0x20C JUMP JUMPDEST PUSH1 0x60 SWAP2 POP JUMPDEST POP POP SWAP1 POP DUP1 PUSH2 0x250 JUMPI PUSH1 0x40 MLOAD PUSH32 0x8C379A000000000000000000000000000000000000000000000000000000000 DUP2 MSTORE PUSH1 0x4 ADD PUSH2 0x247 SWAP1 PUSH2 0x434 JUMP JUMPDEST PUSH1 0x40 MLOAD DUP1 SWAP2 SUB SWAP1 REVERT JUMPDEST PUSH1 0x0 DUP1 PUSH1 0x0 CALLER PUSH20 0xFFFFFFFFFFFFFFFFFFFFFFFFFFFFFFFFFFFFFFFF AND PUSH20 0xFFFFFFFFFFFFFFFFFFFFFFFFFFFFFFFFFFFFFFFF AND DUP2 MSTORE PUSH1 0x20 ADD SWAP1 DUP2 MSTORE PUSH1 0x20 ADD PUSH1 0x0 KECCAK256 DUP2 SWAP1 SSTORE POP POP POP JUMP JUMPDEST PUSH1 0x0 SELFBALANCE SWAP1 POP SWAP1 JUMP JUMPDEST PUSH8 0xDE0B6B3A7640000 CALLVALUE LT ISZERO PUSH2 0x2EB JUMPI PUSH1 0x40 MLOAD PUSH32 0x8C379A000000000000000000000000000000000000000000000000000000000 DUP2 MSTORE PUSH1 0x4 ADD PUSH2 0x2E2 SWAP1 PUSH2 0x474 JUMP JUMPDEST PUSH1 0x40 MLOAD DUP1 SWAP2 SUB SWAP1 REVERT JUMPDEST CALLVALUE PUSH1 0x0 DUP1 CALLER PUSH20 0xFFFFFFFFFFFFFFFFFFFFFFFFFFFFFFFFFFFFFFFF AND PUSH20 0xFFFFFFFFFFFFFFFFFFFFFFFFFFFFFFFFFFFFFFFF AND DUP2 MSTORE PUSH1 0x20 ADD SWAP1 DUP2 MSTORE PUSH1 0x20 ADD PUSH1 0x0 KECCAK256 PUSH1 0x0 DUP3 DUP3 SLOAD PUSH2 0x339 SWAP2 SWAP1 PUSH2 0x4CB JUMP JUMPDEST SWAP3 POP POP DUP2 SWAP1 SSTORE POP JUMP JUMPDEST PUSH1 0x0 DUP2 CALLDATALOAD SWAP1 POP PUSH2 0x351 DUP2 PUSH2 0x65B JUMP JUMPDEST SWAP3 SWAP2 POP POP JUMP JUMPDEST PUSH1 0x0 PUSH1 0x20 DUP3 DUP5 SUB SLT ISZERO PUSH2 0x36D JUMPI PUSH2 0x36C PUSH2 0x58C JUMP JUMPDEST JUMPDEST PUSH1 0x0 PUSH2 0x37B DUP5 DUP3 DUP6 ADD PUSH2 0x342 JUMP JUMPDEST SWAP2 POP POP SWAP3 SWAP2 POP POP JUMP JUMPDEST PUSH1 0x0 PUSH2 0x391 PUSH1 0x12 DUP4 PUSH2 0x4BA JUMP JUMPDEST SWAP2 POP PUSH2 0x39C DUP3 PUSH2 0x591 JUMP JUMPDEST PUSH1 0x20 DUP3 ADD SWAP1 POP SWAP2 SWAP1 POP JUMP JUMPDEST PUSH1 0x0 PUSH2 0x3B4 PUSH1 0x24 DUP4 PUSH2 0x4BA JUMP JUMPDEST SWAP2 POP PUSH2 0x3BF DUP3 PUSH2 0x5BA JUMP JUMPDEST PUSH1 0x40 DUP3 ADD SWAP1 POP SWAP2 SWAP1 POP JUMP JUMPDEST PUSH1 0x0 PUSH2 0x3D7 PUSH1 0x25 DUP4 PUSH2 0x4BA JUMP JUMPDEST SWAP2 POP PUSH2 0x3E2 DUP3 PUSH2 0x609 JUMP JUMPDEST PUSH1 0x40 DUP3 ADD SWAP1 POP SWAP2 SWAP1 POP JUMP JUMPDEST PUSH1 0x0 PUSH2 0x3FA PUSH1 0x0 DUP4 PUSH2 0x4AF JUMP JUMPDEST SWAP2 POP PUSH2 0x405 DUP3 PUSH2 0x658 JUMP JUMPDEST PUSH1 0x0 DUP3 ADD SWAP1 POP SWAP2 SWAP1 POP JUMP JUMPDEST PUSH2 0x419 DUP2 PUSH2 0x553 JUMP JUMPDEST DUP3 MSTORE POP POP JUMP JUMPDEST PUSH1 0x0 PUSH2 0x42A DUP3 PUSH2 0x3ED JUMP JUMPDEST SWAP2 POP DUP2 SWAP1 POP SWAP2 SWAP1 POP JUMP JUMPDEST PUSH1 0x0 PUSH1 0x20 DUP3 ADD SWAP1 POP DUP2 DUP2 SUB PUSH1 0x0 DUP4 ADD MSTORE PUSH2 0x44D DUP2 PUSH2 0x384 JUMP JUMPDEST SWAP1 POP SWAP2 SWAP1 POP JUMP JUMPDEST PUSH1 0x0 PUSH1 0x20 DUP3 ADD SWAP1 POP DUP2 DUP2 SUB PUSH1 0x0 DUP4 ADD MSTORE PUSH2 0x46D DUP2 PUSH2 0x3A7 JUMP JUMPDEST SWAP1 POP SWAP2 SWAP1 POP JUMP JUMPDEST PUSH1 0x0 PUSH1 0x20 DUP3 ADD SWAP1 POP DUP2 DUP2 SUB PUSH1 0x0 DUP4 ADD MSTORE PUSH2 0x48D DUP2 PUSH2 0x3CA JUMP JUMPDEST SWAP1 POP SWAP2 SWAP1 POP JUMP JUMPDEST PUSH1 0x0 PUSH1 0x20 DUP3 ADD SWAP1 POP PUSH2 0x4A9 PUSH1 0x0 DUP4 ADD DUP5 PUSH2 0x410 JUMP JUMPDEST SWAP3 SWAP2 POP POP JUMP JUMPDEST PUSH1 0x0 DUP2 SWAP1 POP SWAP3 SWAP2 POP POP JUMP JUMPDEST PUSH1 0x0 DUP3 DUP3 MSTORE PUSH1 0x20 DUP3 ADD SWAP1 POP SWAP3 SWAP2 POP POP JUMP JUMPDEST PUSH1 0x0 PUSH2 0x4D6 DUP3 PUSH2 0x553 JUMP JUMPDEST SWAP2 POP PUSH2 0x4E1 DUP4 PUSH2 0x553 JUMP JUMPDEST SWAP3 POP DUP3 PUSH32 0xFFFFFFFFFFFFFFFFFFFFFFFFFFFFFFFFFFFFFFFFFFFFFFFFFFFFFFFFFFFFFFFF SUB DUP3 GT ISZERO PUSH2 0x516 JUMPI PUSH2 0x515 PUSH2 0x55D JUMP JUMPDEST JUMPDEST DUP3 DUP3 ADD SWAP1 POP SWAP3 SWAP2 POP POP JUMP JUMPDEST PUSH1 0x0 PUSH2 0x52C DUP3 PUSH2 0x533 JUMP JUMPDEST SWAP1 POP SWAP2 SWAP1 POP JUMP JUMPDEST PUSH1 0x0 PUSH20 0xFFFFFFFFFFFFFFFFFFFFFFFFFFFFFFFFFFFFFFFF DUP3 AND SWAP1 POP SWAP2 SWAP1 POP JUMP JUMPDEST PUSH1 0x0 DUP2 SWAP1 POP SWAP2 SWAP1 POP JUMP JUMPDEST PUSH32 0x4E487B7100000000000000000000000000000000000000000000000000000000 PUSH1 0x0 MSTORE PUSH1 0x11 PUSH1 0x4 MSTORE PUSH1 0x24 PUSH1 0x0 REVERT JUMPDEST PUSH1 0x0 DUP1 REVERT JUMPDEST PUSH32 0x4661696C656420746F2077697468647261770000000000000000000000000000 PUSH1 0x0 DUP3 ADD MSTORE POP JUMP JUMPDEST PUSH32 0x42616C616E6365206E6565647320746F206265206174206C6561737420312045 PUSH1 0x0 DUP3 ADD MSTORE PUSH32 0x7468657200000000000000000000000000000000000000000000000000000000 PUSH1 0x20 DUP3 ADD MSTORE POP JUMP JUMPDEST PUSH32 0x446573706F736974206D757374206265206E6F206C657373207468616E203120 PUSH1 0x0 DUP3 ADD MSTORE PUSH32 0x4574686572000000000000000000000000000000000000000000000000000000 PUSH1 0x20 DUP3 ADD MSTORE POP JUMP JUMPDEST POP JUMP JUMPDEST PUSH2 0x664 DUP2 PUSH2 0x521 JUMP JUMPDEST DUP2 EQ PUSH2 0x66F JUMPI PUSH1 0x0 DUP1 REVERT JUMPDEST POP JUMP INVALID LOG2 PUSH5 0x6970667358 0x22 SLT KECCAK256 PUSH6 0x92868CE27DCE 0xF STOP NUMBER 0x4F 0xD0 MOD PUSH31 0xD4C9809002777F7D330AC8BB9513503594E864736F6C634300080700330000 "
				},
				"gasEstimates": {
					"creation": {
						"codeDepositCost": "340800",
						"executionCost": "380",
						"totalCost": "341180"
					},
					"external": {
						"balance()": "361",
						"balances(address)": "2792",
						"deposit()": "infinite",
						"withdraw()": "infinite"
					}
				},
				"methodIdentifiers": {
					"balance()": "b69ef8a8",
					"balances(address)": "27e235e3",
					"deposit()": "d0e30db0",
					"withdraw()": "3ccfd60b"
				}
			},
			"storageLayout": {
				"storage": [
					{
						"astId": 5,
						"contract": "contracts/re-entrancy.sol:VictimContract",
						"label": "balances",
						"offset": 0,
						"slot": "0",
						"type": "t_mapping(t_address,t_uint256)"
					}
				],
				"types": {
					"t_address": {
						"encoding": "inplace",
						"label": "address",
						"numberOfBytes": "20"
					},
					"t_mapping(t_address,t_uint256)": {
						"encoding": "mapping",
						"key": "t_address",
						"label": "mapping(address => uint256)",
						"numberOfBytes": "32",
						"value": "t_uint256"
					},
					"t_uint256": {
						"encoding": "inplace",
						"label": "uint256",
						"numberOfBytes": "32"
					}
				}
			},
			"userdoc": {
				"kind": "user",
				"methods": {},
				"version": 1
			}
		}
	}
}