{
	"data": {
		"bytecode": {
			"linkReferences": {},
			"object": "608060405234801561001057600080fd5b506108b0806100206000396000f3fe608060405234801561001057600080fd5b50600436106100415760003560e01c8063305fcef314610046578063bca7437b14610064578063d826f88f14610094575b600080fd5b61004e61009e565b60405161005b9190610732565b60405180910390f35b61007e600480360381019061007991906106b9565b610401565b60405161008b9190610732565b60405180910390f35b61009c610620565b005b6060600073ffffffffffffffffffffffffffffffffffffffff1660008054906101000a900473ffffffffffffffffffffffffffffffffffffffff1673ffffffffffffffffffffffffffffffffffffffff161415801561014c5750600073ffffffffffffffffffffffffffffffffffffffff16600160009054906101000a900473ffffffffffffffffffffffffffffffffffffffff1673ffffffffffffffffffffffffffffffffffffffff1614155b156103c557600160159054906101000a900460ff166002811115610173576101726107d5565b5b600160149054906101000a900460ff166002811115610195576101946107d5565b5b14156101d8576040518060400160405280600581526020017f447261772100000000000000000000000000000000000000000000000000000081525090506103fe565b600060028111156101ec576101eb6107d5565b5b600160149054906101000a900460ff16600281111561020e5761020d6107d5565b5b14801561024d5750600280811115610229576102286107d5565b5b600160159054906101000a900460ff16600281111561024b5761024a6107d5565b5b145b806102ca575060016002811115610267576102666107d5565b5b600160149054906101000a900460ff166002811115610289576102886107d5565b5b1480156102c95750600060028111156102a5576102a46107d5565b5b600160159054906101000a900460ff1660028111156102c7576102c66107d5565b5b145b5b8061034657506002808111156102e3576102e26107d5565b5b600160149054906101000a900460ff166002811115610305576103046107d5565b5b148015610345575060016002811115610321576103206107d5565b5b600160159054906101000a900460ff166002811115610343576103426107d5565b5b145b5b15610388576040518060400160405280600e81526020017f506c6179657220312077696e732100000000000000000000000000000000000081525090506103fe565b6040518060400160405280600e81526020017f506c6179657220322077696e732100000000000000000000000000000000000081525090506103fe565b6040518060400160405280601d81526020017f5761697420666f7220616c6c20706c617965727320746f206d6f76652100000081525090505b90565b6060600073ffffffffffffffffffffffffffffffffffffffff1660008054906101000a900473ffffffffffffffffffffffffffffffffffffffff1673ffffffffffffffffffffffffffffffffffffffff1614156104ff57826000806101000a81548173ffffffffffffffffffffffffffffffffffffffff021916908373ffffffffffffffffffffffffffffffffffffffff16021790555081600160146101000a81548160ff021916908360028111156104bd576104bc6107d5565b5b02179055506040518060400160405280601081526020017f596f7527726520706c6179657220312100000000000000000000000000000000815250905061061a565b600073ffffffffffffffffffffffffffffffffffffffff16600160009054906101000a900473ffffffffffffffffffffffffffffffffffffffff1673ffffffffffffffffffffffffffffffffffffffff1614156105fe5782600160006101000a81548173ffffffffffffffffffffffffffffffffffffffff021916908373ffffffffffffffffffffffffffffffffffffffff16021790555081600160156101000a81548160ff021916908360028111156105bc576105bb6107d5565b5b02179055506040518060400160405280601081526020017f596f7527726520706c6179657220322100000000000000000000000000000000815250905061061a565b6040518060600160405280603981526020016108426039913990505b92915050565b6000806101000a81549073ffffffffffffffffffffffffffffffffffffffff0219169055600160146101000a81549060ff0219169055600160006101000a81549073ffffffffffffffffffffffffffffffffffffffff0219169055600160156101000a81549060ff0219169055565b60008135905061069e8161081a565b92915050565b6000813590506106b381610831565b92915050565b600080604083850312156106d0576106cf610804565b5b60006106de8582860161068f565b92505060206106ef858286016106a4565b9150509250929050565b600061070482610754565b61070e818561075f565b935061071e8185602086016107a2565b61072781610809565b840191505092915050565b6000602082019050818103600083015261074c81846106f9565b905092915050565b600081519050919050565b600082825260208201905092915050565b600061077b82610782565b9050919050565b600073ffffffffffffffffffffffffffffffffffffffff82169050919050565b60005b838110156107c05780820151818401526020810190506107a5565b838111156107cf576000848401525b50505050565b7f4e487b7100000000000000000000000000000000000000000000000000000000600052602160045260246000fd5b600080fd5b6000601f19601f8301169050919050565b61082381610770565b811461082e57600080fd5b50565b6003811061083e57600080fd5b5056fe426f746820706c61796572732068617665206265656e2061737369676e65642c207761697420666f722067616d6520746f2066696e69736821a264697066735822122090c14f83566837be779c5ee44126eaa92bc0cca5f61e40572a9f644f87a713ee64736f6c63430008070033",
			"opcodes": "PUSH1 0x80 PUSH1 0x40 MSTORE CALLVALUE DUP1 ISZERO PUSH2 0x10 JUMPI PUSH1 0x0 DUP1 REVERT JUMPDEST POP PUSH2 0x8B0 DUP1 PUSH2 0x20 PUSH1 0x0 CODECOPY PUSH1 0x0 RETURN INVALID PUSH1 0x80 PUSH1 0x40 MSTORE CALLVALUE DUP1 ISZERO PUSH2 0x10 JUMPI PUSH1 0x0 DUP1 REVERT JUMPDEST POP PUSH1 0x4 CALLDATASIZE LT PUSH2 0x41 JUMPI PUSH1 0x0 CALLDATALOAD PUSH1 0xE0 SHR DUP1 PUSH4 0x305FCEF3 EQ PUSH2 0x46 JUMPI DUP1 PUSH4 0xBCA7437B EQ PUSH2 0x64 JUMPI DUP1 PUSH4 0xD826F88F EQ PUSH2 0x94 JUMPI JUMPDEST PUSH1 0x0 DUP1 REVERT JUMPDEST PUSH2 0x4E PUSH2 0x9E JUMP JUMPDEST PUSH1 0x40 MLOAD PUSH2 0x5B SWAP2 SWAP1 PUSH2 0x732 JUMP JUMPDEST PUSH1 0x40 MLOAD DUP1 SWAP2 SUB SWAP1 RETURN JUMPDEST PUSH2 0x7E PUSH1 0x4 DUP1 CALLDATASIZE SUB DUP2 ADD SWAP1 PUSH2 0x79 SWAP2 SWAP1 PUSH2 0x6B9 JUMP JUMPDEST PUSH2 0x401 JUMP JUMPDEST PUSH1 0x40 MLOAD PUSH2 0x8B SWAP2 SWAP1 PUSH2 0x732 JUMP JUMPDEST PUSH1 0x40 MLOAD DUP1 SWAP2 SUB SWAP1 RETURN JUMPDEST PUSH2 0x9C PUSH2 0x620 JUMP JUMPDEST STOP JUMPDEST PUSH1 0x60 PUSH1 0x0 PUSH20 0xFFFFFFFFFFFFFFFFFFFFFFFFFFFFFFFFFFFFFFFF AND PUSH1 0x0 DUP1 SLOAD SWAP1 PUSH2 0x100 EXP SWAP1 DIV PUSH20 0xFFFFFFFFFFFFFFFFFFFFFFFFFFFFFFFFFFFFFFFF AND PUSH20 0xFFFFFFFFFFFFFFFFFFFFFFFFFFFFFFFFFFFFFFFF AND EQ ISZERO DUP1 ISZERO PUSH2 0x14C JUMPI POP PUSH1 0x0 PUSH20 0xFFFFFFFFFFFFFFFFFFFFFFFFFFFFFFFFFFFFFFFF AND PUSH1 0x1 PUSH1 0x0 SWAP1 SLOAD SWAP1 PUSH2 0x100 EXP SWAP1 DIV PUSH20 0xFFFFFFFFFFFFFFFFFFFFFFFFFFFFFFFFFFFFFFFF AND PUSH20 0xFFFFFFFFFFFFFFFFFFFFFFFFFFFFFFFFFFFFFFFF AND EQ ISZERO JUMPDEST ISZERO PUSH2 0x3C5 JUMPI PUSH1 0x1 PUSH1 0x15 SWAP1 SLOAD SWAP1 PUSH2 0x100 EXP SWAP1 DIV PUSH1 0xFF AND PUSH1 0x2 DUP2 GT ISZERO PUSH2 0x173 JUMPI PUSH2 0x172 PUSH2 0x7D5 JUMP JUMPDEST JUMPDEST PUSH1 0x1 PUSH1 0x14 SWAP1 SLOAD SWAP1 PUSH2 0x100 EXP SWAP1 DIV PUSH1 0xFF AND PUSH1 0x2 DUP2 GT ISZERO PUSH2 0x195 JUMPI PUSH2 0x194 PUSH2 0x7D5 JUMP JUMPDEST JUMPDEST EQ ISZERO PUSH2 0x1D8 JUMPI PUSH1 0x40 MLOAD DUP1 PUSH1 0x40 ADD PUSH1 0x40 MSTORE DUP1 PUSH1 0x5 DUP2 MSTORE PUSH1 0x20 ADD PUSH32 0x4472617721000000000000000000000000000000000000000000000000000000 DUP2 MSTORE POP SWAP1 POP PUSH2 0x3FE JUMP JUMPDEST PUSH1 0x0 PUSH1 0x2 DUP2 GT ISZERO PUSH2 0x1EC JUMPI PUSH2 0x1EB PUSH2 0x7D5 JUMP JUMPDEST JUMPDEST PUSH1 0x1 PUSH1 0x14 SWAP1 SLOAD SWAP1 PUSH2 0x100 EXP SWAP1 DIV PUSH1 0xFF AND PUSH1 0x2 DUP2 GT ISZERO PUSH2 0x20E JUMPI PUSH2 0x20D PUSH2 0x7D5 JUMP JUMPDEST JUMPDEST EQ DUP1 ISZERO PUSH2 0x24D JUMPI POP PUSH1 0x2 DUP1 DUP2 GT ISZERO PUSH2 0x229 JUMPI PUSH2 0x228 PUSH2 0x7D5 JUMP JUMPDEST JUMPDEST PUSH1 0x1 PUSH1 0x15 SWAP1 SLOAD SWAP1 PUSH2 0x100 EXP SWAP1 DIV PUSH1 0xFF AND PUSH1 0x2 DUP2 GT ISZERO PUSH2 0x24B JUMPI PUSH2 0x24A PUSH2 0x7D5 JUMP JUMPDEST JUMPDEST EQ JUMPDEST DUP1 PUSH2 0x2CA JUMPI POP PUSH1 0x1 PUSH1 0x2 DUP2 GT ISZERO PUSH2 0x267 JUMPI PUSH2 0x266 PUSH2 0x7D5 JUMP JUMPDEST JUMPDEST PUSH1 0x1 PUSH1 0x14 SWAP1 SLOAD SWAP1 PUSH2 0x100 EXP SWAP1 DIV PUSH1 0xFF AND PUSH1 0x2 DUP2 GT ISZERO PUSH2 0x289 JUMPI PUSH2 0x288 PUSH2 0x7D5 JUMP JUMPDEST JUMPDEST EQ DUP1 ISZERO PUSH2 0x2C9 JUMPI POP PUSH1 0x0 PUSH1 0x2 DUP2 GT ISZERO PUSH2 0x2A5 JUMPI PUSH2 0x2A4 PUSH2 0x7D5 JUMP JUMPDEST JUMPDEST PUSH1 0x1 PUSH1 0x15 SWAP1 SLOAD SWAP1 PUSH2 0x100 EXP SWAP1 DIV PUSH1 0xFF AND PUSH1 0x2 DUP2 GT ISZERO PUSH2 0x2C7 JUMPI PUSH2 0x2C6 PUSH2 0x7D5 JUMP JUMPDEST JUMPDEST EQ JUMPDEST JUMPDEST DUP1 PUSH2 0x346 JUMPI POP PUSH1 0x2 DUP1 DUP2 GT ISZERO PUSH2 0x2E3 JUMPI PUSH2 0x2E2 PUSH2 0x7D5 JUMP JUMPDEST JUMPDEST PUSH1 0x1 PUSH1 0x14 SWAP1 SLOAD SWAP1 PUSH2 0x100 EXP SWAP1 DIV PUSH1 0xFF AND PUSH1 0x2 DUP2 GT ISZERO PUSH2 0x305 JUMPI PUSH2 0x304 PUSH2 0x7D5 JUMP JUMPDEST JUMPDEST EQ DUP1 ISZERO PUSH2 0x345 JUMPI POP PUSH1 0x1 PUSH1 0x2 DUP2 GT ISZERO PUSH2 0x321 JUMPI PUSH2 0x320 PUSH2 0x7D5 JUMP JUMPDEST JUMPDEST PUSH1 0x1 PUSH1 0x15 SWAP1 SLOAD SWAP1 PUSH2 0x100 EXP SWAP1 DIV PUSH1 0xFF AND PUSH1 0x2 DUP2 GT ISZERO PUSH2 0x343 JUMPI PUSH2 0x342 PUSH2 0x7D5 JUMP JUMPDEST JUMPDEST EQ JUMPDEST JUMPDEST ISZERO PUSH2 0x388 JUMPI PUSH1 0x40 MLOAD DUP1 PUSH1 0x40 ADD PUSH1 0x40 MSTORE DUP1 PUSH1 0xE DUP2 MSTORE PUSH1 0x20 ADD PUSH32 0x506C6179657220312077696E7321000000000000000000000000000000000000 DUP2 MSTORE POP SWAP1 POP PUSH2 0x3FE JUMP JUMPDEST PUSH1 0x40 MLOAD DUP1 PUSH1 0x40 ADD PUSH1 0x40 MSTORE DUP1 PUSH1 0xE DUP2 MSTORE PUSH1 0x20 ADD PUSH32 0x506C6179657220322077696E7321000000000000000000000000000000000000 DUP2 MSTORE POP SWAP1 POP PUSH2 0x3FE JUMP JUMPDEST PUSH1 0x40 MLOAD DUP1 PUSH1 0x40 ADD PUSH1 0x40 MSTORE DUP1 PUSH1 0x1D DUP2 MSTORE PUSH1 0x20 ADD PUSH32 0x5761697420666F7220616C6C20706C617965727320746F206D6F766521000000 DUP2 MSTORE POP SWAP1 POP JUMPDEST SWAP1 JUMP JUMPDEST PUSH1 0x60 PUSH1 0x0 PUSH20 0xFFFFFFFFFFFFFFFFFFFFFFFFFFFFFFFFFFFFFFFF AND PUSH1 0x0 DUP1 SLOAD SWAP1 PUSH2 0x100 EXP SWAP1 DIV PUSH20 0xFFFFFFFFFFFFFFFFFFFFFFFFFFFFFFFFFFFFFFFF AND PUSH20 0xFFFFFFFFFFFFFFFFFFFFFFFFFFFFFFFFFFFFFFFF AND EQ ISZERO PUSH2 0x4FF JUMPI DUP3 PUSH1 0x0 DUP1 PUSH2 0x100 EXP DUP2 SLOAD DUP2 PUSH20 0xFFFFFFFFFFFFFFFFFFFFFFFFFFFFFFFFFFFFFFFF MUL NOT AND SWAP1 DUP4 PUSH20 0xFFFFFFFFFFFFFFFFFFFFFFFFFFFFFFFFFFFFFFFF AND MUL OR SWAP1 SSTORE POP DUP2 PUSH1 0x1 PUSH1 0x14 PUSH2 0x100 EXP DUP2 SLOAD DUP2 PUSH1 0xFF MUL NOT AND SWAP1 DUP4 PUSH1 0x2 DUP2 GT ISZERO PUSH2 0x4BD JUMPI PUSH2 0x4BC PUSH2 0x7D5 JUMP JUMPDEST JUMPDEST MUL OR SWAP1 SSTORE POP PUSH1 0x40 MLOAD DUP1 PUSH1 0x40 ADD PUSH1 0x40 MSTORE DUP1 PUSH1 0x10 DUP2 MSTORE PUSH1 0x20 ADD PUSH32 0x596F7527726520706C6179657220312100000000000000000000000000000000 DUP2 MSTORE POP SWAP1 POP PUSH2 0x61A JUMP JUMPDEST PUSH1 0x0 PUSH20 0xFFFFFFFFFFFFFFFFFFFFFFFFFFFFFFFFFFFFFFFF AND PUSH1 0x1 PUSH1 0x0 SWAP1 SLOAD SWAP1 PUSH2 0x100 EXP SWAP1 DIV PUSH20 0xFFFFFFFFFFFFFFFFFFFFFFFFFFFFFFFFFFFFFFFF AND PUSH20 0xFFFFFFFFFFFFFFFFFFFFFFFFFFFFFFFFFFFFFFFF AND EQ ISZERO PUSH2 0x5FE JUMPI DUP3 PUSH1 0x1 PUSH1 0x0 PUSH2 0x100 EXP DUP2 SLOAD DUP2 PUSH20 0xFFFFFFFFFFFFFFFFFFFFFFFFFFFFFFFFFFFFFFFF MUL NOT AND SWAP1 DUP4 PUSH20 0xFFFFFFFFFFFFFFFFFFFFFFFFFFFFFFFFFFFFFFFF AND MUL OR SWAP1 SSTORE POP DUP2 PUSH1 0x1 PUSH1 0x15 PUSH2 0x100 EXP DUP2 SLOAD DUP2 PUSH1 0xFF MUL NOT AND SWAP1 DUP4 PUSH1 0x2 DUP2 GT ISZERO PUSH2 0x5BC JUMPI PUSH2 0x5BB PUSH2 0x7D5 JUMP JUMPDEST JUMPDEST MUL OR SWAP1 SSTORE POP PUSH1 0x40 MLOAD DUP1 PUSH1 0x40 ADD PUSH1 0x40 MSTORE DUP1 PUSH1 0x10 DUP2 MSTORE PUSH1 0x20 ADD PUSH32 0x596F7527726520706C6179657220322100000000000000000000000000000000 DUP2 MSTORE POP SWAP1 POP PUSH2 0x61A JUMP JUMPDEST PUSH1 0x40 MLOAD DUP1 PUSH1 0x60 ADD PUSH1 0x40 MSTORE DUP1 PUSH1 0x39 DUP2 MSTORE PUSH1 0x20 ADD PUSH2 0x842 PUSH1 0x39 SWAP2 CODECOPY SWAP1 POP JUMPDEST SWAP3 SWAP2 POP POP JUMP JUMPDEST PUSH1 0x0 DUP1 PUSH2 0x100 EXP DUP2 SLOAD SWAP1 PUSH20 0xFFFFFFFFFFFFFFFFFFFFFFFFFFFFFFFFFFFFFFFF MUL NOT AND SWAP1 SSTORE PUSH1 0x1 PUSH1 0x14 PUSH2 0x100 EXP DUP2 SLOAD SWAP1 PUSH1 0xFF MUL NOT AND SWAP1 SSTORE PUSH1 0x1 PUSH1 0x0 PUSH2 0x100 EXP DUP2 SLOAD SWAP1 PUSH20 0xFFFFFFFFFFFFFFFFFFFFFFFFFFFFFFFFFFFFFFFF MUL NOT AND SWAP1 SSTORE PUSH1 0x1 PUSH1 0x15 PUSH2 0x100 EXP DUP2 SLOAD SWAP1 PUSH1 0xFF MUL NOT AND SWAP1 SSTORE JUMP JUMPDEST PUSH1 0x0 DUP2 CALLDATALOAD SWAP1 POP PUSH2 0x69E DUP2 PUSH2 0x81A JUMP JUMPDEST SWAP3 SWAP2 POP POP JUMP JUMPDEST PUSH1 0x0 DUP2 CALLDATALOAD SWAP1 POP PUSH2 0x6B3 DUP2 PUSH2 0x831 JUMP JUMPDEST SWAP3 SWAP2 POP POP JUMP JUMPDEST PUSH1 0x0 DUP1 PUSH1 0x40 DUP4 DUP6 SUB SLT ISZERO PUSH2 0x6D0 JUMPI PUSH2 0x6CF PUSH2 0x804 JUMP JUMPDEST JUMPDEST PUSH1 0x0 PUSH2 0x6DE DUP6 DUP3 DUP7 ADD PUSH2 0x68F JUMP JUMPDEST SWAP3 POP POP PUSH1 0x20 PUSH2 0x6EF DUP6 DUP3 DUP7 ADD PUSH2 0x6A4 JUMP JUMPDEST SWAP2 POP POP SWAP3 POP SWAP3 SWAP1 POP JUMP JUMPDEST PUSH1 0x0 PUSH2 0x704 DUP3 PUSH2 0x754 JUMP JUMPDEST PUSH2 0x70E DUP2 DUP6 PUSH2 0x75F JUMP JUMPDEST SWAP4 POP PUSH2 0x71E DUP2 DUP6 PUSH1 0x20 DUP7 ADD PUSH2 0x7A2 JUMP JUMPDEST PUSH2 0x727 DUP2 PUSH2 0x809 JUMP JUMPDEST DUP5 ADD SWAP2 POP POP SWAP3 SWAP2 POP POP JUMP JUMPDEST PUSH1 0x0 PUSH1 0x20 DUP3 ADD SWAP1 POP DUP2 DUP2 SUB PUSH1 0x0 DUP4 ADD MSTORE PUSH2 0x74C DUP2 DUP5 PUSH2 0x6F9 JUMP JUMPDEST SWAP1 POP SWAP3 SWAP2 POP POP JUMP JUMPDEST PUSH1 0x0 DUP2 MLOAD SWAP1 POP SWAP2 SWAP1 POP JUMP JUMPDEST PUSH1 0x0 DUP3 DUP3 MSTORE PUSH1 0x20 DUP3 ADD SWAP1 POP SWAP3 SWAP2 POP POP JUMP JUMPDEST PUSH1 0x0 PUSH2 0x77B DUP3 PUSH2 0x782 JUMP JUMPDEST SWAP1 POP SWAP2 SWAP1 POP JUMP JUMPDEST PUSH1 0x0 PUSH20 0xFFFFFFFFFFFFFFFFFFFFFFFFFFFFFFFFFFFFFFFF DUP3 AND SWAP1 POP SWAP2 SWAP1 POP JUMP JUMPDEST PUSH1 0x0 JUMPDEST DUP4 DUP2 LT ISZERO PUSH2 0x7C0 JUMPI DUP1 DUP3 ADD MLOAD DUP2 DUP5 ADD MSTORE PUSH1 0x20 DUP2 ADD SWAP1 POP PUSH2 0x7A5 JUMP JUMPDEST DUP4 DUP2 GT ISZERO PUSH2 0x7CF JUMPI PUSH1 0x0 DUP5 DUP5 ADD MSTORE JUMPDEST POP POP POP POP JUMP JUMPDEST PUSH32 0x4E487B7100000000000000000000000000000000000000000000000000000000 PUSH1 0x0 MSTORE PUSH1 0x21 PUSH1 0x4 MSTORE PUSH1 0x24 PUSH1 0x0 REVERT JUMPDEST PUSH1 0x0 DUP1 REVERT JUMPDEST PUSH1 0x0 PUSH1 0x1F NOT PUSH1 0x1F DUP4 ADD AND SWAP1 POP SWAP2 SWAP1 POP JUMP JUMPDEST PUSH2 0x823 DUP2 PUSH2 0x770 JUMP JUMPDEST DUP2 EQ PUSH2 0x82E JUMPI PUSH1 0x0 DUP1 REVERT JUMPDEST POP JUMP JUMPDEST PUSH1 0x3 DUP2 LT PUSH2 0x83E JUMPI PUSH1 0x0 DUP1 REVERT JUMPDEST POP JUMP INVALID TIMESTAMP PUSH16 0x746820706C6179657273206861766520 PUSH3 0x65656E KECCAK256 PUSH2 0x7373 PUSH10 0x676E65642C2077616974 KECCAK256 PUSH7 0x6F722067616D65 KECCAK256 PUSH21 0x6F2066696E69736821A264697066735822122090C1 0x4F DUP4 JUMP PUSH9 0x37BE779C5EE44126EA 0xA9 0x2B 0xC0 0xCC 0xA5 0xF6 0x1E BLOCKHASH JUMPI 0x2A SWAP16 PUSH5 0x4F87A713EE PUSH5 0x736F6C6343 STOP ADDMOD SMOD STOP CALLER "
		},
		"gasEstimates": {
			"creation": {
				"codeDepositCost": "444800",
				"executionCost": "480",
				"totalCost": "445280"
			},
			"external": {
				"decide()": "infinite",
				"play(address,uint8)": "infinite",
				"reset()": "97234"
			}
		},
		"methodIdentifiers": {
			"decide()": "305fcef3",
			"play(address,uint8)": "bca7437b",
			"reset()": "d826f88f"
		}
	},
	"abi": [
		{
			"inputs": [],
			"name": "decide",
			"outputs": [
				{
					"internalType": "string",
					"name": "",
					"type": "string"
				}
			],
			"stateMutability": "view",
			"type": "function"
		},
		{
			"inputs": [
				{
					"internalType": "address",
					"name": "player",
					"type": "address"
				},
				{
					"internalType": "enum RPS_v1.Move",
					"name": "move",
					"type": "uint8"
				}
			],
			"name": "play",
			"outputs": [
				{
					"internalType": "string",
					"name": "",
					"type": "string"
				}
			],
			"stateMutability": "nonpayable",
			"type": "function"
		},
		{
			"inputs": [],
			"name": "reset",
			"outputs": [],
			"stateMutability": "nonpayable",
			"type": "function"
		}
	]
}